:020000041000EA
:1000000000B5324B212058609868022188439860DF
:10001000D860186158612E4B002199600221596106
:100020000121F02299502B49196001219960352056
:1000300000F044F80222904214D00621196600F024
:1000400034F8196E01211966002018661A6600F04E
:100050002CF8196E196E196E052000F02FF8012189
:100060000842F9D1002199601B49196000215960AB
:100070001A491B48016001219960EB211966A021F2
:10008000196600F012F800219960164914480160C1
:100090000121996001BC002800D000471248134993
:1000A000086003C880F30888084703B5996A0420EC
:1000B0000142FBD001200142F8D103BD02B5186610
:1000C0001866FFF7F2FF186E186E02BD00000240BE
:1000D000000000180000070000035F00212200005C
:1000E000F4000018222000A00001001008ED00E03C
:1000F00000000000000000000000000074B24E7A12
:1001000000200420F7010010C3010010C5010010F9
:10011000C1010010C1010010C1010010C101001097
:10012000C1010010C1010010C1010010C701001081
:10013000C1010010C1010010C9010010CB01001065
:10014000CD010010CD010010CD010010CD01001037
:10015000CD010010CD010010CD010010CD01001027
:10016000CD010010CD010010CD010010CD01001017
:10017000CD010010CD010010CD010010CD01001007
:10018000CD010010CD010010CD010010CD010010F7
:10019000CD010010CD010010CD010010CD010010E7
:1001A000CD010010CD010010CD010010CD010010D7
:1001B000CD010010CD010010CD010010CD010010C7
:1001C00000BE00BE00BE00BE00BE00BEEFF3058054
:1001D000103800BEF2EB88718C550010B855001035
:1001E0003802001090A31AE71E481F49086006C88D
:1001F00081F3088810471D480068002801D019487D
:10020000F3E70DA40ECC002902D000F012F8F9E7B4
:100210001749184A002000E001C19142FCD116495B
:100220008847164988471649884700BEFDE701C937
:1002300001C29A42FBD37047B8550010E00000207D
:100240005810002030650010000004200000042039
:100250003065001000100420001004200000000091
:10026000704700000000000008ED00E0000000D032
:1002700058100020701F0020451D0010D5020010EE
:100280003D1D0010F8B5C04606480749091A8B10F5
:10029000C90FC91810B5491003D0044B002B00D06A
:1002A000984710BD58100020581000200000000092
:1002B000054B10B5002B03D00449054800E000BFF2
:1002C000FFF7E2FF10BDC04600000000001E002046
:1002D000F4500010F0B5CE46474680B58BB06E4660
:1002E00001F030FE3200184BD02713CB13C213CBD2
:1002F00013C213CB13C21B68340013600AAB9946B8
:10030000012398463F0620CC280000F039F84346E8
:10031000AB407B624C45F6D1D02501272D0604F079
:1003200039FE0B2101F0F4FB3C0089007358642076
:100330009C406C616C616C6100F08CFF6420AC616E
:1003400000F088FFEBE7C046F4500010094A830034
:100350009A1810B514684022544080322240064C4E
:10036000C000A44663441A60044B9C46604441604C
:1003700010BDC04604C0014004D00140004001400F
:100380000123D0228340120693629361094A8300BD
:100390009A1811684022514080320A400649C00034
:1003A0008C4663441A60054B9C46052360444360B9
:1003B0007047C04604C0014004D0014000400140E5
:1003C0008023DB051868000F7047C0460FB400B5E6
:1003D000084883B001F00AFE049B002B07D005A952
:1003E0001800019101F090FC034801F0FFFD01208D
:1003F00001F0A2FC1C5100102C51001070B5EFF35D
:10040000108C72B60D4D2B68002BFCD0BFF35F8FA4
:100410000724CB08C618C05C01230C40A3401C0075
:100420000440034207D118433070BFF35F8F2C6044
:100430008CF3108870BD1000FFF7C8FF2C0100D0AE
:10044000F8B54746CE46884680B5EFF3108C72B6B5
:10045000214D2C68002CFCD0BFF35F8F9A422CD822
:10046000D4080727055D061901241740BC402C421B
:100470001FD007210127894609E0D408055D061928
:100480004C4639001440A1400C00294211D00132E1
:100490009342F2D201204042BFF35F8F00220E4B05
:1004A0001A608CF3108800280FDBC0BCB946B04638
:1004B000F8BD254310003570EEE7BFF35F8F0023D2
:1004C0002B608CF31088012040424346002BECD077
:1004D0000898FFF77BFFC0462C0100D0044A107833
:1004E000431CDBB2172B00D9102313707047C04692
:1004F000700F002010B5064B064C82B0010000932F
:1005000018221F232000FFF79BFF02B010BDC0463A
:1005100030510010901900200021044B044ABFF311
:100520005F8F02C39342FAD17047C046000100D0EA
:10053000800100D0054B064A1360064A13605360E1
:100540009360D360136153619361704780808080B2
:1005500000E400E004E400E01F2318401E3B834059
:10056000002905D0C021044A490053501360704748
:10057000802201498B50FAE700E100E0012282402D
:10058000034B1B6813405A1E9341D8B27047C046B4
:1005900000E100E001238340014A13607047C04638
:1005A00000E200E0064B10309B688000C358054A0B
:1005B00000209B1A2F229A424041C0B27047C04689
:1005C00000ED00E0740F002070B50D00EFF3108611
:1005D00072B60F4A1368002BFCD0BFF35F8F0D4B30
:1005E00010309B6884001B590B4A934203D09D42F4
:1005F00001D001F0AFF9074B9B681D51BFF35F8F2E
:10060000BFF35F8F0022024B1A6086F3108870BD23
:10061000240100D000ED00E0CD010010F0B55746F8
:100620004E46DE464546E0B585B00600009117000F
:10063000EFF3108B72B66A4A1368002BFCD0BFF33D
:100640005F8F0025674B5D579A46002D00DAA9E0C1
:100650006B00654C01935B199B009846A146C14411
:100660004B4652469B7910361370604BB6009B6820
:1006700099590B1B2F2B33D95D4B994200D0ACE01D
:10068000019B42469C465B4B6544AD0063535A4B0D
:100690000232A218043B9B1A1B05584A5B0D6519D0
:1006A00013436B80564B0121AB80FF23AB71009B42
:1006B000EF71AB604B460B4319004C4B9B68995153
:1006C000BFF35F8FBFF35F8F0022454B1A608BF340
:1006D000108805B0F0BCBB46B246A946A046F0BDA6
:1006E00001200A008243D3798C46BB4231D845466B
:1006F000130044491B1B5B415943090D3D4B635398
:100700003D4B02356519043B5B1B1B053B4D5B0DE7
:100710002B43AA464D466B800425AC465546E04423
:10072000131F44441B1B1B055B0D1D434B46997156
:1007300000999D8099604946DF71334B01431360F6
:10074000BBE75800C01880002018C179B9422FD9E2
:1007500002000623D356002BF3DA02932B4B61469B
:100760000393131D9A4604235B429C46E144504682
:100770004B461B1A1B055B0D9C46204B95719846FA
:100780006346404603439380019B5A199200039BA2
:10079000A418A380029B1C4AA371009B2260E771EE
:1007A000A3608AE701F0D6F8002553465D574FE76E
:1007B000908802934005131D9A46031561469C4696
:1007C0004046D444634604302018181AE02300053C
:1007D000400D1B0218430390C5E701F0BBF84FE73B
:1007E000240100D0671F0020740F002000ED00E0FE
:1007F000CD01001000A1FFFFA40F002000E0FFFFCB
:1008000001BDFFFFAAAA00000148804701BD00000A
:10081000F0B5DE4657464E464546E0B50C0083B07F
:10082000EFF3108872B6634A1368002BFCD0BFF355
:100830005F8F614B61499A68030010339F00D5595F
:1008400000938D4243D0A54254D05D4EAA1B2F2A5F
:100850003DD85C4B9C461B689A4601231A0099467A
:100860008240534613401F2201934B46024093405F
:100870009A468022634650469850BFF35F8FEFF34D
:1008800005839B46002B37D0009B5B4501D001F0D0
:1008900061F82A004B469A439068844208D177E079
:1008A0004B005B189B00F3189868844236D01A00FE
:1008B000062151560029F3DA844255D0019B002BC2
:1008C00027D0C02251463F4B5200995019603A4BF5
:1008D0009B68DD51BFF35F8FBFF35F8F0022354B05
:1008E0001A6088F3108803B0F0BCBB46B246A94634
:1008F000A046F0BD0D00EAE72A004B469A439068F7
:100900008442D5D106201056130000280ADA0D00C3
:1009100032E0802351462B4AD150D8E706201856A2
:10092000002822DB42001118890074188946A1684A
:100930009960E179D971062161569971002925DB09
:10094000A488F11A640524154C440919E02409050A
:10095000490D24022143998013181B4A9B001178EA
:10096000F31899711070A9E713005946002914D1A2
:10097000FF3191711549918013490A789A71144A8F
:100980009B1B5B415A43120D0A7097E71149E2E73E
:100990000620105613000028C4DA0F4A0F49D21A55
:1009A000083A5002400D014399800D4952080A430C
:1009B000DA8083E7240100D000ED00E0CD010010D3
:1009C000740F002000E100E0671F002001BDFFFF61
:1009D000AAAA000001BD0000AE0F002000F0FFFF3A
:1009E00000F8FFFF70B501240443EFF30581EFF336
:1009F000108C72B6214A1368002BFCD0BFF35F8FB6
:100A00001F4B05001F4AED1A6D416A43120D1E4D22
:100A10008900AE6852B27658A6421CD006215956BB
:100A200091421CD012215956914222D01E21595672
:100A3000914220D02A2159560324914210D0134BC1
:100A400019781A708171BFF35F8F00220B4B1A6007
:100A50008CF3108870BDAB680D4C5C50EFE7002440
:100A60006100091989005B18FF2199710949998072
:100A7000E5E70124F4E70224F2E7C046240100D0B0
:100A8000740F0020AAAA000000ED00E0671F0020FC
:100A9000CD01001001BDFFFF10B5084B084C82B01E
:100AA00001000093002205232000FFF7C9FC002865
:100AB00001DB1F23181A02B010BDC0464C510010B4
:100AC0006C1F0020024B9C46614489000160704706
:100AD0004000003470B5114C114DAC420FD2FF26CE
:100AE0002368002B0CD0FFF7F9FC01002000FFF772
:100AF000E9FFA680BFF35F8F0834AC42F0D370BD2E
:100B0000FFF7ECFC01002000FFF7DCFF2671BFF3CC
:100B10005F8F0834AC42E3D3F1E7C04650100020A9
:100B20005810002010B50400FFF7D8FC0100200089
:100B3000FFF7C8FFFF232371BFF35F8F10BDC046CF
:100B400010B504000120FFF7D5FC034BC3189B0030
:100B50002360BFF35F8F10BD40000034034B9C4601
:100B6000614489000160BFF35F8F7047400000342B
:100B70000A4B1968EFF3108072B60A68002AFCD09D
:100B8000BFF35F8F1B68BFF35F8F00221A6080F393
:100B9000108840BF002000217047C0463C1F002045
:100BA000F0B5DE4657464E464546E0B583B0EFF316
:100BB000058203231340B54A99005258009190468C
:100BC00001229A409346B24B1A60B24B01935B46A6
:100BD000B1484363434608229B5E9946002B3ADAAC
:100BE00043469B881BB2002B00DB9DE043469B796C
:100BF000002B00D0E1E0434608241C5F002C20DBE2
:100C000043465A6963001B19DB00D3189D68DC68F2
:100C10006B1C00D103E1A048009984466144826ABC
:100C20000B69AE1A9B1A9E4213D35A46036A1A42A4
:100C30000FD0994800F0B0FB8C4202DCC7D185424E
:100C4000C5D940BF03B0F0BCBB46B246A946A046DA
:100C5000F0BD0D61EDE7424652695B0092464B44A0
:100C6000DB009A4453469E68DF6800F095FB8F4294
:100C7000B6DC00D1F8E0002F00DAD9E05246534646
:100C800054691B69019A934200D1CCE04146524617
:100C90000820085E52880004210010439847040091
:100CA0000D0023002B4300D1C2E0002D00DBDFE06C
:100CB00030003900001BA94153469860D9600022DA
:100CC0009A5E002A00DA8BE743465D6953009C1860
:100CD000E4002C19A768E4688C4200DD80E702D1AB
:100CE000874200D97CE74646328108360DE08C42C7
:100CF00000D1C6E01E000023F25E002A0ADB53008A
:100D00009C18E4002C19A768E4689B18DB00EB181A
:100D10008C42ECDD53461A804B46338043469B8819
:100D20001BB2002B00DA61E743461A69EFF310812A
:100D300072B61368002BFCD0BFF35F8F43469E88CA
:100D4000012342465B42938036B21369BFF35F8F43
:100D500000221A6081F31088002E00DA46E743462D
:100D60005D69083342469C467700BF19FF00EF19C2
:100D7000BB68604698460823D15E9246FC6800290D
:100D800007DA0EE0A24246D018000023C15E002917
:100D900006DB4B005B18DB00EB18DA68A242F1DDE2
:100DA000524606800023FE5E3980002EDCDA904633
:100DB00043469B79002B00D11DE7002342469371E7
:100DC000434646460821595E08364B1C00D138E799
:100DD00047468946556902E006004B1C18D04B0077
:100DE0005B18DB00E8180A008C46E95E43881BB2FA
:100DF000002BF1DA01235B42DC178360C4604A45B3
:100E000003D031803B8903803A81E1464B1CE6D117
:100E1000B8464C46F2E69A684245B5D9C0E7631C2D
:100E200000D0F8E605E7200023699847002825D17F
:100E3000534642461B8813811269EFF3108372B642
:100E400011680029FCD0BFF35F8F4246514652889B
:100E50000A804246494651801269BFF35F8F0021E4
:100E6000116083F31088BBE6864200D803E7B7E63B
:100E7000094800F091FA001969411DE76568246886
:100E80000FE7874200D835E744E7C046201E002020
:100E90003C700540A10B00100040054070B52E4C81
:100EA0002569002D04D00A212C48FFF70BFE70BDE8
:100EB0002B4E0321300000F065FAE660FFF70EFBD1
:100EC000284B03229C46D02322701B061B6801215D
:100ED0006370254B6044A3600F23800020610220D3
:100EE000638063694942A1801980023119864731C4
:100EF0001D83585218315A5275325C399952183242
:100F000001319952183201319952183201319952F6
:100F1000083518329D520231183299521832013177
:100F200099521832013199521832013199521832BE
:100F3000013199521832013199520C4B0C49DC6045
:100F400001303562FFF740FB01210320FFF704FB6E
:100F5000084B1D60A7E7C046BC0F00203C1F0020C7
:100F60000040054040000034FFFF1000201E00201C
:100F7000A10B00103860054000487047BC0F0020EE
:100F8000F8B51F0008AB1B7804001600002B08D131
:100F900000F00AFA32003B00121A8B41002B00DAF3
:100FA00053E02269EFF3108072B61368002BFCD077
:100FB000BFF35F8F0223E15E63694A005218D200DB
:100FC0009B18002937DB1A8862802269BFF35F8F84
:100FD0000025156080F31088069A9E60DF601A6114
:100FE000079A5A615A8801325204520C101C002A86
:100FF0001FD082B25880080410432669EFF310878F
:1010000072B63268002AFCD0BFF35F8FA2881A80C4
:10101000A1802369BFF35F8F00221A6087F31088D5
:101020000B4923788C4601329A40E36863441A6086
:10103000F8BD0120DDE72369BFF35F8F00221A604E
:1010400080F3108801204042F2E70020F0E7C0461C
:101050003C20000070B501000469EFF3108C72B6FB
:1010600020680028FCD0BFF35F8F02200D5E4C6922
:1010700068004019C0002418002D37DB2088488004
:101080000869BFF35F8F002606608CF31088E36069
:1010900063880498013320615B0405985B0CA260AF
:1010A00060611A1C002B1FD093B228046280184381
:1010B0000A69EFF3108C72B61368002BFCD0BFF3F3
:1010C0005F8F8B8823808D800B69BFF35F8F002239
:1010D0001A608CF310880B7801329A40CB6808496B
:1010E0008C4663441A6070BD0122DDE70B69BFF3D3
:1010F0005F8F00221A608CF3108801204042F2E7D3
:101100003C20000010B543890A1493421ADD5300B5
:101110009B184269DB00D3180469EFF3108C72B698
:101120002268002AFCD0BFF35F8F5A88090494B26A
:10113000090C8A4208D00369BFF35F8F00221A604E
:101140008CF31088002010BD8022120214435C80B2
:10115000012302698371BFF35F8F002111608CF35B
:101160001088044902788C469340C268012062448A
:101170001360E8E73C20000040787047F0B50400B9
:101180000D0006267642F717C64636196F4100B5A0
:1011900082B08F4214D811D000F006F932003B0023
:1011A000121A8B41002B17DC002B47D0200029009E
:1011B00000F038F902B080BCB846F0BD8642EBD9E9
:1011C0000022002316001F0000F0EEF832003B0062
:1011D000121A8B41002BE7DD00F0E6F832003B00ED
:1011E000121A8B41002B0ADB00230193154B3200AE
:1011F000009315483B00FFF72DFF0028D6DB0023A6
:101200009C46B046114A124E736A9F4204D8B16A96
:101210008845CBD99F42C9D11168EFF3108072B6CF
:101220000B68002BFCD0BFF35F8F1368BFF35F8F99
:101230006146196080F3108820BFE5E7002AB5D029
:10124000CAE7C046710B0010BC0F00203C1F0020F5
:101250000040054070B5060000F0A6F8FA22040030
:101260000D00002330000021920000F0E3FC8023F9
:10127000001969411B06994202D3012002494042EC
:10128000FFF77CFF70BDC046FFFFFF7FF0B5D6467D
:101290004F464646C0B504000D0082B0EFF3058707
:1012A0008946002F0ED0344900204B6AAB4203D34D
:1012B0008A6A0130A24226D302B0E0BCBA46B146E7
:1012C000A846F0BD2D4B9846DB689A4643465046EB
:1012D0001E7800F061F80B00514602000436B6009B
:1012E000715820008E1A2900801A99418F4211DC12
:1012F0000ED020BF204A0020536A4B45DCD3926AAF
:101300000130A242D8D25B1B5A1E9341D8B2D3E718
:101310008642EED900F048F822002B00121A8B41C9
:10132000002B1ADB00230193154B2200009340464B
:101330002B00FFF78FFE011E0FDD0F4B5A6A4A4547
:1013400017D39B6AA34212D34046FFF7DBFE0A4A3B
:101350000020536A4B45AFD3D1E7074A0020536AB8
:101360004B45A9D3926A0120A242A5D2CBE74A45B8
:10137000EAD120BFE8E7C04600400540BC0F00208E
:10138000710B001010B5024A0248FFF737F810BD84
:1013900068510010941900200300416A0A00986AFD
:1013A000596A8A42FAD17047034B596A0A00986A0F
:1013B000596A9142FAD170470040054070B5040067
:1013C0000D00174A536A1900966A536A8B42FAD184
:1013D0003000190024184D41AB4216D813D0104AE2
:1013E0002B00526A954203D90D494A6A9A42FCD3AE
:1013F0009A4207D10A4A02E0516A994202D1916A9F
:10140000A142F9D370BDA642E9D9054B5B6A1C0025
:101410005A1CEFD0012301246442E5175B42E3E745
:1014200000400540064A536A9942FCD807D1044B54
:1014300002E05A6A914202D19A6A8242F9D3704715
:1014400000400540F8B5040006200D0000F078F9D2
:10145000002844D0374B3849E3185A1E9341802264
:10146000120494465B429B0D344A9B05634413600F
:10147000334A136018000A689043FBD12D4B314A60
:10148000E31859424B4180215B00490006209952E4
:1014900000F056F92900C00000F03AFB0130C30902
:1014A0001ED1402701226262A362266BF30722D479
:1014B000E36A254B0620E51800232B60266300F025
:1014C0003FF93900800000F023FB7023E26A5A40A4
:1014D0000E3313402B601D4B23630323A364F8BD1D
:1014E0001B4A93421ED900231A4A1B4F6262A36211
:1014F000266BF307DCD5194B144AE3181A60656AAA
:10150000A36A0620AD01ED1800F01AF9144900F0A5
:10151000FFFAAD020100280000F0FAFA0021FFF7FF
:101520004DFFC5E74006800E9F011A003F180300DB
:10153000B9E7C0460080FCBF08C0004000E00040A2
:1015400000F00040481F00202C10000001030000A4
:10155000FEFF0000FFFF0000C0FF3F003030000032
:101560004E0E0000F8B5DE464E4657464546E0B5FD
:101570008B4605000A991800160000F0C9FA0A9B6C
:101580006C001F02324B64199C46A40064446368DB
:1015900081469F4200D967602B1FDBB29846012B22
:1015A00030D9C02380229B01E31812011A60294B15
:1015B000AD0059599A4600291BD17301E0262268D3
:1015C00053401E40802342465B01E3181E60012AFF
:1015D00030D9802380229B01E31812011A60534600
:1015E0004A4667605A51F0BCBB46B246A946A0467F
:1015F000F8BD586900F08CFA013043001B18033B1A
:10160000FDD2DAE75B46012BCBD1C02303229B013D
:10161000E3181A60023AA3681A42FCD07301E0266C
:101620002268AD0053401E4080230A4A5B01924667
:10163000E3181E605A462168514003220A401A608E
:1016400001225B469A40A3681A42FCD0C1E7C0461B
:101650000080004098190020F0B546464F46D64617
:10166000C0B51F00344B44009C462418A4006444B9
:10167000636888461600FF2B02D880235B006360F6
:10168000031FDBB29A46012B30D9C02380229B0175
:10169000E31812011A60294B85005959994600290F
:1016A0001BD17301E026226853401E40802352461E
:1016B0005B01E3181E60012A30D9802380229B0140
:1016C000E31812011A6080235B0063604B465F5190
:1016D000E0BCBA46B146A846F0BD586900F018FA19
:1016E000013043001B18033BFDD2DAE74346012BD0
:1016F000CBD1C02303229B01E3181A60023AA368EE
:101700001A42FCD07301E0262268850053401E4037
:1017100080230A4A5B019146E3181E604246216815
:10172000514003220A401A60012342469340A268B6
:101730001342FCD0C1E7C046008000409819002049
:10174000014B8000C058704798190020F8B504007C
:1017500021481E0017000D0000F0DAF901003800E2
:1017600000F0D6F9069B36041B031E432368002BAA
:1017700020DB1A4B1A49E3185A1E9341802292012A
:1017800094465B421B0B174A1B0363441360164AC3
:1017900013601F000A689743FBD1144B2560E218C1
:1017A0002123A06013602368002BFCDA0823E66085
:1017B0001360F8BD3F2322681340AB42D9D1A36820
:1017C0001B051B0D8342D4D1EE22E368D2021340E5
:1017D000B342CED1EDE7C046001BB7000040FDBFCD
:1017E00008C0004000E0004000F00040043000006D
:1017F00010B580241C4BE4051C6000281AD001237E
:101800001A4C18431A4BDC611A4C44401C62596252
:1018100098628021144BC905196017481749086060
:10182000E021C9041960002A07D18022144B120656
:101830001A6010BD0E4BD861EBE753019B1A9B0059
:101840009A18802312015B049A4209D213000D49B1
:101850000B60074B5A608022094BD2051A60E8E7FB
:10186000094B1A00F3E7C04600B00540D3C007B0EB
:10187000008005402D3FF84FFCFF0100082001408B
:1018800000A00540F81D0020FFFFFF008023024A52
:101890009B000B43D362704700800540142310B5B2
:1018A0000100188804331B88984710BD162310B513
:1018B0000100188802331B88984710BDF8B54746C9
:1018C000CE4680B50F1E19D0142399460433040068
:1018D0000025012698464B461888434621681B88F8
:1018E000984701C4431E9841013540420640AF422B
:1018F000F1D13000C0BCB946B046F8BD0126F8E7CA
:10190000142370B50400188804331B880D000549A2
:10191000984703000020002C01DB0130A040290083
:101920009847C04655420000AA23064A1B0113608F
:101930008D235B00D3600449044B19605368002B6E
:10194000FCDA70470040024000B0FA00006002403C
:101950007047C04610B50148FEF738FD8C510010A5
:1019600070B5074D074EB54209D20024013E761BE3
:10197000B60808CD984723000134B342F9D170BDB1
:10198000B0500010EC500010054B064A06491A6092
:10199000064A074B1A6010000B689843FBD170474A
:1019A00000E00040BFCDFBFE08C00040FE7F3C00D1
:1019B00000F00040044BDB6C002B03D18022034B72
:1019C000D2021A607047C046000011504C201150DE
:1019D000044A054B1A60054A1368DB018033FBD1CA
:1019E0007047C046FFFFFF0100F0004008C0004004
:1019F0004022034B9A675A671A67DA667047C046F7
:101A000000F0014010B5FEF787FD10BD70B5044D24
:101A1000044CA968C022200000F068F9AC6070BDD9
:101A200000ED00E000000020002310B5294C82B03A
:101A3000A367FFF779FF0122274B1A60636C012B24
:101A4000FCD10322254B1A60224A936B012BFCD157
:101A5000013300930121224A22480433FFF776FE26
:101A6000052301210093204A2048FFF76FFE002242
:101A7000022104201E4BFFF7EFFD0022012105206B
:101A80001C4BFFF7E9FD0022002107201A4BFFF74E
:101A9000E3FD002200210820174BFFF7DDFD802326
:101AA000DB000093002200210920134BFFF75AFDB1
:101AB0000022104B00210620FFF7CEFD0420FFF787
:101AC0003FFE0E4900F024F801000020FFF7DEFE83
:101AD00002B010BD008000403CB0004030B000407B
:101AE000002F685900800240008C864700C00240E9
:101AF000001BB70040597307006CDC0240420F0026
:101B000001480421014B1847E00F0020BD180010C8
:101B1000114A936F9B0813D210665166002905D0B5
:101B2000FFE7FFE7FFE7516F106F704704B500282C
:101B300001D00020C04303F073FA002104BDC04669
:101B4000F0B5146E556E576F166FFFF7E5FF14660C
:101B5000556657671667F0BD000000D010B5014804
:101B6000FEF734FC98510010132370B51D78012D39
:101B700019D014DD1D48FFF799FE06001C48FFF739
:101B800095FE1C4C80223100200000F0AFF8022DA1
:101B900006D01948FFF782FE184B186070BD154C2F
:101BA000174BA364F5E7174B124C23606360A360E7
:101BB000E36023616361A361E36123626362A36203
:101BC000E36223636363A363E36323646364A364E3
:101BD000E36423656365A365E36523666366A366C3
:101BE000E36623676367A367E367D9E753440000AD
:101BF00053460000E81100204C330000381E00203E
:101C0000091C00105D1B001007B5604601880A0A18
:101C10000230DF2AFAD1C9B2820804D30288408890
:101C20000004104300E00068014A5050039007BDD3
:101C3000E811002051434343C9188C46110C83B26C
:101C40004B4310B4040C614392B280B250436243E0
:101C50001C041B0C001910BC59411304120CC018B1
:101C6000514161447047000010B50148FEF7AEFBDA
:101C70003C520010132310B510481C78FFF716FED5
:101C80000100012C0AD003DD80220D4800F02EF85F
:101C90000C48FFF703FE0C4B186010BD084C542293
:101CA000200000F023F82200084980322368002B2E
:101CB00000D1216004349442F8D1E9E75346000092
:101CC0003C1E00204C330000381E0020691C001010
:101CD00001480421014B1847F00F0020BD180010E7
:101CE000014B1B6818470000F00F0020014B5B6898
:101CF00018470000F00F002010B5002800D110BDDB
:101D000000F028F9FBE7C04610B5094A0300146843
:101D100084B0002C08D0012200910648524203A949
:101D2000A047012004B010BD00F060F90020F9E7E1
:101D3000F41D0020F91C001000BEFDE710B5FFF7F0
:101D4000FBFFC04670B5FFF70BFE074D074EB542CF
:101D500009D20024013E761BB60808CD984723001F
:101D60000134B342F9D170BDEC500010F4500010B2
:101D7000030010B5080011001B68984710BDC0464D
:101D8000F0B5C64600B5437D07000D001600002BD8
:101D900038D0002A2EDD00216A1E90466A5C037D41
:101DA0004C1C00200A2A0CD0A64216D043461B5DCC
:101DB00021000D3B5A4253416A5CDBB24C1C0A2A9B
:101DC000F2D1002BF0D1884217DB022110483B688A
:101DD0009847A64207D02000E8E7864203DD311A83
:101DE0003B6828189847AD19013D2B780D3B5A42A6
:101DF00053413B7580BCB846F0BD091A3B682818B2
:101E00009847E2E70368110028009847F2E7C046C8
:101E10000C530010F0B5DE4657464E464546E0B539
:101E200085B017001C0006000D00FFF7BDFA002367
:101E3000314A12184B41802109068B4202D30122FC
:101E40002E4B52422E4908008A4603F009F90190B0
:101E50006B1C03D1300003F0A1F80500002C26D044
:101E6000284B9846284B1C68002C15D0002F21D1F8
:101E7000264F02E02469002C0ED02368002BF9D0F5
:101E80003B68002B01D09C42F4D120002A00310095
:101E9000C0472469002CF0D1019B002B28D12800D9
:101EA00005B0F0BCBB46B246A946A046F0BD184BF3
:101EB0009846D7E7154B994602ABDF1D0A239B4690
:101EC00002E02469002CE7D02368002BF9D04B46B0
:101ED0001B68002B01D0A342F3D12A00310020005F
:101EE000C0475B460122390020003B70C047E8E74D
:101EF000504603F08DF8D2E740420F00FFFFFF7F0E
:101F000050100020811D0010E8190020F019002059
:101F1000711D00100A4A1368002B05D10CE01A004D
:101F20001B691032002B07D09842F8D1002902D14A
:101F300003691360016170470029FCD01060FAE763
:101F4000E819002010B500F03DF900F085FB0120F4
:101F500010BDC046F0B5CE46474680B583B06B464F
:101F60000600DD1D2870FFF71FFA00231A4A121819
:101F70004B41802109068B4202D30122174B52426A
:101F800017490800884603F06BF8164B81461C6819
:101F9000002C14D0144F02E02469002C0FD02368C9
:101FA000002BF9D03B68002B01D09C42F4D12000DB
:101FB00001222900FFF7E4FE2469002CEFD14B46F3
:101FC000002B05D1300003B0C0BCB946B046F0BD0F
:101FD000404603F01DF8F5E740420F00FFFFFF7F8A
:101FE00050100020E8190020F019002070B50400FE
:101FF00002F0D4FF01230100050001222000FFF7B9
:1020000009FF084B1C68002C06D06368002B05D024
:1020100098472469002CF8D1280070BD2469002C51
:10202000F3D1F9E7E8190020F0B5002915DD0E4BD2
:102030000D271A680D4B0E4CD3185D426B414518A5
:1020400020215B001E5F0478A64207D093691942E5
:10205000FCD101301460A842F5D1F0BD936919425A
:10206000FCD11760F2E7C0464C1F00200080FCBF87
:10207000481F0020204B70B504000D1E1E682ADD8D
:10208000002010211D4B013C1A689369194214D19C
:10209000013093691942FCD1136823548542F4D16D
:1020A000002E08D050239363516B183B0B4014490A
:1020B0008C466244136028000CE0002E08D05023A8
:1020C0009363516B183B0B400D498C46624413607F
:1020D00000280DD070BD002E0AD05022074B1B687F
:1020E0009A63596B183A0A4005498C4663441A6052
:1020F00003204042EEE7C046801900204C1F00201C
:1021000034100000064B10B51B68002B06D00021D0
:10211000044A12689163044A1068984710BDC0468B
:10212000801900204C1F0020881900200822034B32
:1021300019688B691A42FCD17047C0464C1F0020B9
:10214000F8B51A4F1A4B3A680500D3185842434164
:10215000184E14331C003368002D02D0002B0FD012
:10216000F8BD002BFCD0002120009563FEF7F4F9A8
:1021700020001149FEF74CFB104B35601D60EFE766
:102180000E4B200019600C493560FEF71DFA012145
:102190002000FEF7E1F950223B689A63596B183A28
:1021A0000A4007498C4663441A60D9E74C1F002057
:1021B0000080FCBF80190020052100108819002034
:1021C000341000000D4B10B51B780D4B0D4C1B78D7
:1021D0000D4B02211B780D4B00202360FEF7B6F853
:1021E00002210120FEF7B2F8E12120684902FFF741
:1021F00029F901210648FFF78DFE10BDB0550010EA
:10220000AC5500104C1F0020A855001000400340A2
:10221000001000207047C0460022014B1A70704722
:10222000681F00204B790020FF2B0BD18B79002BEE
:1022300008D1CB79012B05D1082A03D9024B8A7822
:1022400009301A707047C046681F0020012070478F
:1022500010B5012901D0012010BD1349537910791F
:1022600009781B02034300209942F5D15378012BD2
:1022700008D0022BF0D1002064220021FFF7B8FA29
:102280000120E9E7D37891781B021943DB0507D5D4
:102290004A0A100001231A407E331940FFF730FB31
:1022A00001204A0A4042F5E7681F002000487047B5
:1022B000F453001070B5050014000120012909D164
:1022C00053780020012B05D1637912791B02134347
:1022D000072B00D070BD21002800024A9F3301F077
:1022E00067FAF7E74C53001001230370004870476A
:1022F0002C5300104B780A781B0213438A7810B5D0
:1023000012041A43CB781B0613439622D200934241
:1023100000D010BD0022012011004042FFF7F0FA6A
:10232000024B1860024B19607047C04684190020A8
:102330008C19002010B5024B1878FEF72BF910BD50
:10234000691F0020154B70B51A68002A22D0EFF3E0
:10235000108172B610680028FCD0BFF35F8F002098
:102360000F4A596010701B68BFF35F8F186081F3CC
:102370001088002400250B4E3078FEF7FFF8002867
:1023800004D1002400252900200070BD3078FEF71C
:1023900001F9F8E7FA240025A400ECE7181E002054
:1023A0006A1F0020691F002070B5040000200E0085
:1023B00001F01EFB002836D0002001F02FFB002882
:1023C00031D0FEF7F1FF0023184A12184B4180214B
:1023D00009068B4216D2164D280002F041FE002855
:1023E00021D0002001F004FB00280FD101200021A2
:1023F000404200F011FD03246442280002F008FE70
:10240000200070BD01220B4B5242E4E7002001F096
:1024100005FB0028EAD021003200002001F008FB73
:10242000041EEAD1E7E703246442E9E740420F00D3
:10243000401F0020FFFFFF7F10B5FEF7B5FF002310
:102440000E4A12184B41802109068B4202D3012209
:102450000B4B52420B4C200002F002FE00280CD025
:1024600001200021404200F0D7FC002001F02AFBAF
:102470000028F5D1200002F0CBFD10BD40420F0036
:10248000FFFFFF7F401F0020F8B5DE46574680B5AE
:1024900005000C00FEF788FF0023374A12184B4155
:1024A000802109068B4202D30122344B5242344927
:1024B00008008A4602F0D4FD002803D1C0BCBB4608
:1024C000B246F8BD002001F093FA00284AD0002659
:1024D000002C43DD2B4B9B4614E0A919002001F092
:1024E0002BFB070001200021404200F095FC00205A
:1024F00001F0E8FAFEF758FF224BF6191860596010
:10250000B4422BDD002001F037FBA71B0200B842CC
:1025100000DD3A00002AE0D101200021404200F015
:102520007BFC002001F0CEFA002001F061FA0028C7
:1025300014D0002001F020FB0028E1D1FEF734FF89
:102540005B460F001A685B68002184460E4812182B
:102550004B419F4202D8D3D19445D1D9504602F085
:1025600057FDABE700200021064B1860596050462C
:1025700002F04EFDA2E7C04640420F00FFFFFF7F82
:10258000401F0020D811002020A1070030B52B4C9F
:1025900085B00021200002F04BFD00281CD1284B03
:1025A0001A68002A16D0EFF3108172B6106800285E
:1025B000FCD0BFF35F8F01242248596002781B686A
:1025C000D2B20470BFF35F8F0020186081F31088CF
:1025D000002A17D005B030BD01200021404200F094
:1025E0001BFC002001F01AFA0500200002F010FD8B
:1025F000002DEFD0144B1B68002BEBD0134A106852
:102600009847E7E7FEF7B8FC0400FEF7CDFEFA2294
:102610000023920012184B41802109068B4202D3FD
:1026200001220B4B524201210291002101910949E3
:1026300020000091FEF7A4FCCCE7C046401F00201C
:10264000181E00206A1F0020841900208C19002009
:10265000FFFFFF7F45230010D02310B51B0684B079
:102660001C68FEF789FCFEF787FDA04202D000201F
:1026700004B010BD2A4B002100201B7801F078FD2A
:1026800028480368002B47D00120FEF705FAFF23F6
:10269000254C264920701840FDF796FF207801212F
:1026A000FDF75AFF0520FDF77DFF002826D10822FF
:1026B00000211F48FFF714FBFEF75EFC0400FEF745
:1026C00073FEFA220023920012184B418021090662
:1026D0008B4202D30122174B524201210291002169
:1026E0000191154920000091FEF74AFC0028BEDB4D
:1026F00012480121FFF70EFC0120B9E70120FDF788
:10270000F9FE0B4B01001800FEF728FA0022052005
:102710000B49FDF783FFEBE7FEF704FAB4E7C04689
:10272000B4550010401F0020691F00208D250010A7
:10273000181E0020FFFFFF7F452300101810002007
:10274000352300100048704790540010004870472F
:102750003C54001010B5040017480378002B20D01B
:10276000002C06D1154B16484380063BFF3B0380E7
:1027700010BD052C19D8134BA400E05812490123B1
:10278000013804E001330A800231142B0FD0C25CFF
:10279000002AF7D1C022DBB25B0092000848134345
:1027A000E5E7112100F022F8DAE70020E0E7CA238C
:1027B00003489B00DBE7C046501F002009040000CF
:1027C000C019002024540010C219002010B502487E
:1027D00000F0E0F810BDC046301E002010B5082201
:1027E0000149FFF783FA10BD301E002030B54B1EA3
:1027F000012900D1A7E0664A11780D092C00303478
:102800009F2900D9A2E00470012B00D1BEE00F2166
:10281000147821400C003034092900D998E0447024
:10282000022B00D1B2E054782509290030319F2CC9
:1028300000D990E08170032B00D1A7E00F21214047
:102840000C003034092900D987E0C470042B00D172
:102850009CE094782509290030319F2C00D97FE035
:102860000171052B00D191E00F2121400C00303483
:10287000092900D976E04471062B00D186E0D4788E
:102880002509290030319F2C00D96EE08171072B7A
:1028900000D17BE00F2121400C003034092966D89B
:1028A000C471082B00D171E0147925092900303159
:1028B0009F2C5FD80172092B68D00F2121400C009A
:1028C0003034092958D844720A2B5FD0547925092D
:1028D000290030319F2C52D881720B2B56D00F21FA
:1028E00021400C00303409294BD8C4720C2B4DD038
:1028F00094792509290030319F2C00D907310173C3
:102900000D2B43D00F2121400C003034092901D96F
:1029100037310C0044730E2B38D0D1790C092200CA
:1029200030329F2900D9073282730F2B2ED00F220D
:102930000A4011003731092A01D830321100C17321
:10294000102B23D010300023037030BD07345AE71A
:1029500037310C0063E707316CE737310C0074E75F
:1029600007317DE737310C0085E707318EE73731D6
:102970000C0095E707319DE737310C00A3E70731DD
:10298000AAE737310C00C4720C2BB1D1C018DAE7BA
:10299000301E002010B588B004000D2200216846CA
:1029A000FFF79EF90D22002104A8FFF799F94B23A8
:1029B0006A466846137004A90D2202F021FB152116
:1029C000082220006944FFF791F908B010BDC04605
:1029D000F8B500F043F90C23194DFF22AB67052031
:1029E0001849FDF71BFE184C402200212000FFF77C
:1029F00077F94027002301262121144A6670278396
:102A0000A260136063545F31618445396354104A96
:102A100010496360E2602787A1620B606362E26233
:102A200002F03EFB80239B052E64EB6490230A4A50
:102A30000120EA508022094B5202DA64F8BDC046F8
:102A400000001150B1040020F4190020840010503F
:102A5000000110508000105010D0010000201150D3
:102A600010B501210520FDF777FD10BD10B500223E
:102A70000021024800F012F910BDC046141A0020CF
:102A8000044B1970002904D080219023024A890246
:102A9000D1507047621F0020002011500B785B0658
:102AA00002D14B78052B00D070478A78014B1A6011
:102AB000FAE7C04600001150F0B5C646C87800B528
:102AC0008007830F1800012B60D08F780A794B792B
:102AD0007F213940FC091B024E001343334D32194C
:102AE0005201AA18977001276740577000275B05AD
:102AF0005B0DD7701383D076B846CA00012C32D054
:102B00002B4FBC468F016244BC46AC446746BA605A
:102B100047461760002932D0264AC90090466246CF
:102B2000414451603F223F339343022837D022492A
:102B300037190A687F01D3180B602049EF19FA6032
:102B40008B422ED836197601AD19EB7E1C499B06B7
:102B50004A4013438022120613436A68136001201F
:102B600080BCB846F0BD174FBC468F016244BC46DE
:102B7000AC446746BA6247461760002908D1002373
:102B800064012C196360104BE360E8E70020E7E77D
:102B90000B4AC9009046624641445162C2E75B005D
:102BA000C5E7FEF7D7FEFA68CCE7C046F419002067
:102BB0008400105004001050FC1D0020FF0F105026
:102BC00000001050800010500001105010B502F0AD
:102BD00067FA10BD10B57F200C0020404000E409CA
:102BE000110000191A00034B4001C01800F056F8FC
:102BF000012010BDF41900207F23180010B50840F3
:102C0000CA090B4203D107497D3B9B1A8B664000E2
:102C100080188022044B40010021C018120102F0EC
:102C20002FFA10BD00201150F41900207F2213004C
:102C300010B50B400A4200D110BDC9095B005B18FA
:102C400004485B01C018002300220349C37002F04E
:102C500017FAF1E7F4190020FFF7FFFF80220A4B73
:102C6000520410B51A60094B09491A6010000B682C
:102C70009843FBD18022002152010648FFF730F82B
:102C80000922054B5A6710BD00E0004000F00040EB
:102C900008C000400000105000001150002310B583
:102CA000C3820133828283760161040002F0F0F96D
:102CB000002804D080219023074A8902D1502000A7
:102CC00002F0C6F9002802D00123237710BD2000AE
:102CD00002F0CEF9FAE7C046002011507047C04616
:102CE0007047C04600207047002070477047C046BC
:102CF0007047C0467047C0467047C046024B587880
:102D0000431E9841C0B2704798140020024B1878B7
:102D10004007C00F7047C04698140020F0B5D64653
:102D20004F464646C0B5314B07009A461B780E0009
:102D3000FF2B01D0012044E0002941D00021542282
:102D40002B48FEF7CDFF00222A4C2B4B20001A7097
:102D5000FDF7E8FE294B1C60294C2000143CFDF7D0
:102D6000EFFE200001F00CFE264B274D1C60274B88
:102D7000002B2BD02800FFF7B7FA254B2A781860D4
:102D800024490024894622490023884610E043460E
:102D90001B6862019B18002B12D05B68002B0FD0C0
:102DA00098472A780134E4B2511C2300A1420FDB7A
:102DB000A242ECD89B1A5B014B445B68002BEFD11D
:102DC0000020E0BCBA46B146A846F0BD2A78D7E755
:102DD0005346310038001F70FFF7FAFD0028EFD08E
:102DE0003800FFF73DFE0120EBE7C0464C10002005
:102DF0009814002090140020631F0020EC14002081
:102E000044100020F0140020611F0020E92200106F
:102E1000E81200204C550010F0B5DE4657464E46ED
:102E20004546E0B5C84B91B002931B78FF2B00D10B
:102E30003EE1C64BC64E9B465F46C64B0DAC01936A
:102E4000C54B009335686A69EFF3108172B6136859
:102E5000002BFCD0BFF35F8FA9612800210001F097
:102E6000BDFB6A69AB69BFF35F8F0021116083F31B
:102E70001088002800D11BE16378082BE2D89B0062
:102E8000FB589F466368002BDCD0A0689847D9E7C1
:102E90007F222179AF4D0A405300EB189846C809AC
:102EA000804440460123303005799D430571057902
:102EB00003339D430571002A00D100E14346A74A30
:102EC0001B7D1278934200D3EFE0A54A5B011568A1
:102ED000ED18002D00D1EBE0A36862792078AD6990
:102EE000A847AFE79F4A1378002B00D1E0E01378A2
:102EF000013BDBB213701378002BA3D10122954D57
:102F000001212B78042013432B703423EA5C8A437D
:102F1000EA54EA5C8243EA540133EA5C8A43EA54A5
:102F2000EA5C8243EA54237800209B4600F0A0FC30
:102F3000602223791A40602A00D1EFE0402A00D1B4
:102F4000F5E0DB06DB0E012B00D113E1022B00D1F3
:102F5000C7E0002B00D0E1E0202A00D11CE2002ACB
:102F600000D0DBE06379092B00D9D7E07E4A9B00D3
:102F7000D3589F46774D2B78DB0700D462E7FFF7E5
:102F8000BBFE5FE7019BDB78DB0700D45AE7606894
:102F9000FFF7A6FE56E76F4D2B78DB0700D451E70D
:102FA00028780007C00FFFF7A5FE4BE723786A4992
:102FB00099468B46694B6A4998468A4639001A7881
:102FC00047460023B04600254E46894610E053464A
:102FD0001B686A019B18002B00D176E0DB6830008B
:102FE00098473A780135EDB2511C2B008D4244DCF4
:102FF0009542ECD39B1A5B015B44EFE72378584979
:103000009946564B8A4698463100BB464E461A783A
:1030100000250023474689460FE053461B686A0196
:103020009B18002B55D0DB68300098473A78013563
:10303000EDB2511C2B008D4207DC9542EDD39B1A5B
:10304000009A5B0194466344EDE7019D5422002100
:103050002800FEF745FE1022FF214448FEF740FEFF
:1030600028002022FF2114304E465F46FEF738FE2E
:1030700000F0F4FBFFF73CFEE4E6364D542200215D
:103080002800FEF72DFE1022FF21281DFEF728FE46
:1030900028002022FF21143046464F46FEF720FE2E
:1030A00000F0DCFB2379AB70CCE6501C984213DABD
:1030B00011B0F0BCBB46B246A946A046F0BDA3681D
:1030C0006279207800F0E8FBBCE646464F46214D89
:1030D000E6E74E465F46CBE71F4D9B1A5B015D1945
:1030E000FAE67023217A0B4218D1C80982460F33C1
:1030F0000B405B0098461948EB1853441B7D007841
:103100009946834266D216485B010068814699441D
:10311000002A00D15FE14B46002B68D120780021C6
:10312000FFF76AFD80212078FFF766FD8AE61048E8
:1031300000F09EFB012158460EAAFFF7BBF80028BD
:1031400000D07FE6EAE7C0464C100020A4540010EF
:10315000F0140020981400204C550010611F00202E
:10316000E8120020631F0020C85400109C140020A7
:10317000B5220010237A0F2BD0D8CF4AEB181B7939
:103180001578AB423ED3691C9942C7DB5D1BCB4B24
:103190006D01ED18686900F06BFB012158466B6901
:1031A0000EAA9847002800D04CE66022150023792B
:1031B0001D401A42B2D163790A3B012BAED800F010
:1031C00057FB63790A2B00D199E158460EA900F00C
:1031D000D9FA37E6431C4B4500DAF7E04B461B1A99
:1031E0005B019946B5488144002A00D1F3E04B4683
:1031F000586900F03DFB4B46012158465B690EAA19
:1032000098479CE7AE4A5B011568ED18002DC1D1C7
:1032100084E7A37999466B789945D6D06B78002BD3
:1032200000D033E14B466B70002B00D12BE14846B8
:103230000138C0B2FFF78AFA002800D17EE1437856
:103240000793022B00D079E10122C179B1468B119D
:10325000491113400A40302112015B0113432A78BF
:10326000A8468A4313432B7009239A468244564644
:10327000BA46C37882781B021343C31805938E4B5A
:1032800004938E4B08938E4B09938E4B0A93059BA8
:10329000B34200D855E1737801220B2B03D1337868
:1032A000F278F6187378042B00D044E1059B0027D0
:1032B0009B1B9BB20693049B0B921D7800230393E8
:1032C0001BE0099A7B011568ED18002D00D132E151
:1032D000310058462B69069A98478446082803D936
:1032E000069A824200D313E1049B01371D78FFB296
:1032F0006B1C03979F4200DD1DE1BD42E1D8039B9B
:103300005D1B089B6D019C466544E1E76B780CAA48
:1033100002321370584601230EA900F049FA91E5D4
:10332000E3881A0AD8B20F2A00D9F7E66649930053
:10333000CB589F460EA800F0A1FA5846A179FFF796
:1033400095FB02222B7813432B707BE5E388012B3E
:1033500000D0E3E608222B78584693430EA92B7041
:1033600000F010FA6EE5022029780CAB9A1C8B064F
:103370008908DB0F01400B431380584602230EA936
:1033800000F016FA5EE5E388012B00D0C6E60822BD
:103390002B7813432B7018E7237A0F2B00D9BDE647
:1033A000EB181D79444B1B789D4228D2444B6D018C
:1033B0001B685D19002D00D1B0E6686900F058FA6D
:1033C000012158466B690EAA9847B8E6002A00D03A
:1033D000A4E60023994662790220130003928343F6
:1033E000012B15D0002A00D098E62B00434453440B
:1033F00030331B790CAA9B07DB0F0232BCE75A1C47
:10340000AA4200DA8AE6ED1A2C4B6D01ED18D4E7DA
:10341000E388002B12D1029B1878039B012B23D049
:10342000FFF7EAFB43460221EB18534430331A7985
:103430000A4301211A711A790A431A714B46002B6B
:1034400000D1FFE4586900F013FA4B4601215B6993
:103450000EAA58469847002000F00AFA3523EB5C84
:10346000DB0700D5EEE4B0E6FFF7E0FB43460221C0
:10347000EB18534430331A798A431A711A79039935
:103480008A431A71DAE7FFF733FC9EE600215846BB
:10349000FFF7F6FA5846FFF799FBAB780749039315
:1034A0000491054B064998461A7805910023290096
:1034B0001D008A461BE0C046611F00204C550010CD
:1034C000E8120020AC140020F0540010059B6A01A3
:1034D0001B689B18002B4DD0DB6858469847434625
:1034E0001A780135EDB2511C2B008D422EDC95422D
:1034F000ECD39B1A049A5B0194466344ECE70CAB53
:103500009A1C584601230EA9157000F051F999E450
:103510000B9A012A4FD0002A3CD00023B07804E057
:103520000133DBB20F71934234D2C118C9B24144A6
:103530000D79FF2DF4D04E464546574600236B705B
:10354000ECE54E465746FFF7D1FB3EE65546542282
:1035500000212800FEF7C4FB1022FF21281DFEF7E2
:10356000BFFB28002022FF211430FEF7B9FB039B8C
:10357000AB7057E65546FAE7FEF798FE021E00D1FB
:10358000CCE5D37891781B020B4358460EA900F086
:103590000FF9D4E565463B002A0031000A9800F097
:1035A0008DFEAC46049B039A1B786644013393421C
:1035B00000DB6CE6BFE7174B29699942ADD1079A4A
:1035C000ABE7FFF78FFB021E00D1A7E55846137843
:1035D0000EA900F0EDF8B2E52189FFF7BBF8021E55
:1035E000F4D19BE5022A0FD0FFF77EFB021EC8D163
:1035F00094E5FFF7A7F8021E00D18FE51223584685
:103600000EA900F0D5F89AE5FFF7A0F8021EB8D190
:1036100084E5C0467D3C0010F8B557464E46DE4670
:1036200045460C00E0B516001F00002A3CD01F4B99
:1036300000259A46702399461D4B9B4617E05B4632
:103640002000997800F0FCFD00281FD021004046A2
:10365000FFF732FA002819D0A378DA09012A1CD022
:103660000A9A013513702378E418B5421CDA63789E
:10367000052B0BD1E3789B079B0FBB4206D153462A
:103680004A461B789846A3781A42D8D00020F0BC4E
:10369000BB46B246A946A046F8BD0B9A0135137049
:1036A0002378E418B542E2DB0120F0E74C1000205B
:1036B00098140020702270B5094B0C001D788B788F
:1036C0001A4201D0002070BD064B2000997800F00E
:1036D000B7FD0028F6D021002800FFF7EDF9F2E74A
:1036E0004C100020981400200B007F2010B51840CB
:1036F000DB0934334000044AC018044B1168C01879
:1037000000F05AFD10BDC046EC14002098140020B3
:103710000B007F2010B51840DB0934334000044A09
:10372000C018044B1168C01800F06EFD10BDC046F3
:10373000EC1400209814002070B57F240F480C4032
:1037400064000419CD09641930342079C00701D50B
:10375000002070BD01262579094835430078257180
:10376000FFF738FA0028F4D101222379934323711B
:103770002379033293432371EAE7C046981400206B
:103780004C10002070B5094C0600082220000D00E6
:10379000FEF7ACFA00238021E360A3602B783000B1
:1037A000994300220023FFF7C7FF70BD7814002063
:1037B000F8B5CE4647469046264E80B5814608224B
:1037C00030000D001F00FEF791FA4346B36000235E
:1037D000F381EC79AB7924021C43231CBC4200D951
:1037E0003B1C9FB2B381002C0ED0002F18D0434653
:1037F000002B2CD03B1C402F1BD89FB233787F2B43
:103800001CD80021144A0FE080212B780022994314
:1038100048460023FFF790FFC0BCB946B046F8BD4C
:103820007F230022317899433B004846FFF784FF0D
:10383000F2E740239FB233787F2BE2D9064C3A005F
:1038400041462000FEF752FA80212200ECE70020DA
:10385000E2E7C046781400203814002010B5142286
:1038600000210248FEF73CFA10BDC0467814002043
:10387000014B18617047C0467814002010B5054C04
:10388000010008222000FEF731FA0023A360E36064
:1038900010BDC0467814002070B5384C1D00237848
:1038A0000600DA09C9098A4210D00020002D00D094
:1038B00070BD21003000FFF7F1F82369002B03D021
:1038C00022000321300098470120F1E7A0687F2BF8
:1038D00005D8002834D02A002949FEF707FAE289E2
:1038E000A1685219E38892B24919E281A16093421A
:1038F00014D03F2D12D9A389981A051C80B24028F4
:103900002AD82078ADB27F2828D800219A4232D018
:103910001B4A2B003000FFF70FFFC9E72369002B7C
:1039200005D0220002213000984700280AD08021CB
:1039300023780022994330000023FFF7FDFEB7E70C
:103940000020B5E700213000FFF756F93000802154
:10395000FFF752F90120ABE74025D2E79A4207D0A2
:10396000074C2A002000FEF7C1F980212200D0E791
:1039700080210022CDE70022CBE7C046781400204A
:103980003814002070B50500FFF7B8F9002800D101
:1039900070BDFFF7BBF90028FAD1C8236B43124C66
:1039A000E618F1780029F3D010331C19200000F03C
:1039B000FFFD3F28ECD90020F178FFF795FE0028A5
:1039C000E6D0200000F0F4FD3F2808D9074BEA01BB
:1039D000D218F17840230020FFF7AEFED8E7F17847
:1039E0000020FFF795FED3E770130020EC120020B3
:1039F00010B50400FFF782F9002801D1002010BDA6
:103A0000FFF784F90028F9D1C8226243024B013044
:103A10009B181B791840F2E770130020C82310B5DB
:103A200043430248181800F0A5FD10BD8013002084
:103A3000F0B5C824C646802344431F4F1034050008
:103A400000B53C195B029A4200D31C4A200092B296
:103A500000F012FE8046FFF751F9002803D14046DE
:103A600080BCB846F0BDFFF751F90028F7D1C82651
:103A70006E43BE19F378002BF1D0200000F098FDC2
:103A80003F28ECD90020F178FFF72EFE0028E6D081
:103A9000200000F08DFD3F2808D9094BEA01D2181B
:103AA000F17840230020FFF747FED8E7F1780020A7
:103AB000FFF72EFED3E7C04670130020FFFF000083
:103AC000EC120020F8B50600FFF718F9002801D124
:103AD0000020F8BDFFF71AF90028F9D1C824744373
:103AE0002500134F2435ED19280000F043FD002870
:103AF000EED03F190020B978FFF7F6FD0028E7D097
:103B00000C4BF401E41821002800402200F0B4FD21
:103B1000B978051E08D0030022000020FFF70CFE34
:103B20000028D5D02800D4E70020FFF7F1FDCFE72B
:103B3000701300202C13002070B5C82444430C4B94
:103B40000500E41880235B029A4200D3094A200052
:103B500092B200F059FE0600200000F00BFD3F2855
:103B600001D8300070BD2800FFF7ACFFF9E7C04670
:103B700094130020FFFF0000C82310B54343024800
:103B8000181800F015FD10BD94130020F0B50025A5
:103B9000184C83B0C82200212000FEF7A1F8164B74
:103BA00021001D70FF236371E1235B02A3602000ED
:103BB00008234022A37338310095073B103000F0F2
:103BC000A3FC270001232100200026004022783199
:103BD0000093B837243000F097FCC0363800FCF76B
:103BE000A1FF3000FCF79EFFE56127622663656355
:103BF00003B0F0BD701300206C1300200B4B196B49
:103C000000290AD01A6A002A0DD000221A621A630B
:103C1000DA6100225A63012070471A6A002AFAD03A
:103C2000D9611962F7E71A63F3E7C0467013002001
:103C300070B50F4C052200212000FEF751F80D4D04
:103C40002B78DA0707D50C4C9B070CD501212000F7
:103C500000F0B6FE70BD2000103000F091FE2B7811
:103C6000054C9B07F2D4200000F08AFEEEE7C04628
:103C7000701300206C13002094130020F0B54B79D2
:103C8000060083B0022B02D18B79022B03D00025D2
:103C9000280003B0F0BD214FBB78002BF7D18B7803
:103CA00009253B700C780C196378242B0BD1082A5A
:103CB00002D80FE0AA420DD32378E4185D19637887
:103CC000ADB2242BF6D0052B08D0042B02D163799A
:103CD0000A2B11D00020FFF755FED9E72100300054
:103CE000FFF7E8FC0028D2D0A3787B7023785D1919
:103CF000E4186378ADB2E8E7094B27780193013304
:103D00000093022202233000E119FFF785FC00280E
:103D1000BDD00E35ED19ADB2DCE7C0467013002002
:103D200072130020F8B560231400127805001340C8
:103D30000020202B07D1304A6379277916781B029F
:103D40003B439E4200D0F8BD6378222B1AD007D89F
:103D5000202B34D0212BF6D101293ED00120F2E7CF
:103D6000232BF0D1012940D00329F7D1234B002B7D
:103D7000F4D0E178A37809020020194300E000BFE5
:103D80000120E0E7012930D00329E7D101252E00E9
:103D9000A378E478023924021C43147126402432AB
:103DA0001000714000F00CFE154B002BD6D06208BD
:103DB000002031002A4000E000BF0120C3E70129B4
:103DC0000BD00329CAD10F4B002BC7D008320020DB
:103DD0001100FEF78FFA0120B5E707232100280024
:103DE000094AFFF7E5FC0120ADE721002800FFF7B5
:103DF000C9FC0120A7E7C0467013002000000000A6
:103E000000000000F522001078130020F0B54F46A6
:103E10004646D646364DC0B5EA781F0080460C00AF
:103E2000AB788A423BD08B4210D00020E0BCBA462F
:103E3000B146A846F0BD2F4B002B04D02E4800F011
:103E4000AFFB002851D00020FFF79CFDAB78A342C8
:103E500001D00120EAE7294B002B02D0002000E02E
:103E600000BF0020FFF72EFE0028F2D1244C2000D6
:103E700000F080FB0028ECD1002FEAD0BF06E8D18B
:103E8000243C4046A178FFF72FFC0028E1D0002316
:103E900000224046A178FFF74FFC0120C6E710231F
:103EA0009A46184EAA4431005046BAB200F0ACFC13
:103EB000154B002BBFD06B79FF2BBCD0002FBAD095
:103EC000F219914603E00136B145B4D06B793278EE
:103ED0009A42F8D1504600F063FB0028F3D15346D4
:103EE000103B597900E000BFEDE700E000BFAAE712
:103EF000701300200000000080130020000000006C
:103F000094130020EC120020000000009322F0B572
:103F1000134C85B0002120009200FDF7E1FE230044
:103F20002000802640270F4D4D337600FF33293087
:103F30000295009300220023002103970196FF3091
:103F400000F0D6F94035201D28340023012200213D
:103F5000039702950196009400F0CAF905B0F0BDF0
:103F600034160020B415002010B5054C200000F0D8
:103F7000F5F920002538FF3800F0F0F9012010BDD8
:103F80005C17002070B5084C002520003130FF3050
:103F9000257000F0F5FC20000C3000F0F1FC2A2325
:103FA000FF33E554657170BD34160020F8B55746EF
:103FB0004546DE464E46E0B54B7980460F00FF2B66
:103FC00027D1424B0C7899462A234946FF33CB5CD4
:103FD000002B1ED14E79002E1BD1BB783C190B70E3
:103FE0003B79002B12D098235B004B449A460C235C
:103FF0004B449B46A5186378052B05D110E0237828
:10400000E4186378052B0BD0A542F8D8E01B80B2EA
:1040100000E00020F0BCBB46B246A946A046F8BD71
:10402000A542F3D921004046FFF744FB0028F0D019
:10403000A3780136F6B2DB09012B29D0504600F0F7
:104040009FFC2A234946A278FF33CA546379227918
:104050001B0213431E4A5B0594465B0D9421634487
:104060005A4253414A4602204900525C5B00824357
:1040700013434A46535451464046083900F0D6F996
:104080000028C6D02378E4183B79B342B3D8BDE703
:10409000584600F075FC5A46A3780C3A5371637980
:1040A00021791B020B430A495B058C465B0D634477
:1040B00059424B41022011795B0081430B43594621
:1040C00000200839137100F07FF9DBE73416002077
:1040D00000FEFFFF70B505002A201F4CFF30205C5A
:1040E0001E006379884203D000208B421DD070BD32
:1040F0009A235B00E35A002B0DD1184B002B04D000
:1041000000201749B2B200E000BF2800154900F0B6
:104110008DF90120EBE72000962331305B00E15858
:10412000B2B2FF3000F070FBE7E70F4B002B04D07A
:1041300031040020090C00E000BF0C4C28002100D5
:1041400000F042F90028E4D132002100280000F0FC
:1041500007F90120CBE7C04634160020000000001C
:10416000B41500205C170020000000003816002065
:1041700000B5030083B0002910D00020012B07D820
:104180000A78002A04D00B48C2540120012A01D029
:1041900003B000BD1800FEF7C1FDF9E7012301A936
:1041A00000200B80FEF7BAFD0028F1D00122014B60
:1041B0001A70EDE78C140020037870B5DB0704005B
:1041C0000E00DD0F002B17D103785B0701D5280007
:1041D00070BD01213000494200F032FF2378DB0737
:1041E000DD0F002B0AD123785B0708D40422237843
:1041F00001251343237002E00025E8E70025300085
:1042000000F006FFE3E7C04670B50C000121060090
:104210004942200000F014FF33785B07DD0F002BCC
:1042200004DB200000F0F4FE280070BD3378DB07CB
:1042300004D40422337893433370F2E70025F0E787
:10424000437902791B021343C2785B0592075B0D29
:10425000920F022A1DD0032A0CD00020012A08D177
:1042600002394A425141124A9446614499424041BE
:10427000C0B2704702394A1E91410E4A494211406C
:104280008022D20094460020614499424041C0B24D
:10429000EFE7022905D0002040229A424041C0B2F7
:1042A000E7E7054A981843425841C0B2E1E7C046E3
:1042B000FF03000040FCFFFF00FEFFFF8A1870B5FF
:1042C000914207D27F264C78052C04D00C7809192E
:1042D0008A42F8D870BD34008D782C4064000419EF
:1042E000ED0963550C7809198A42ECD8F2E7C0460B
:1042F000F0B5C64600B582B0150008AA40CA040051
:1043000017880BAA1288012090460A0021780240E3
:1043100081432000114321703A00009331000123B2
:10432000083000F0F1F8002E01D0002F08D10A9BD0
:10433000012063604346638002B080BCB846F0BD94
:1043400026001C363000FCF7EDFB0023002D01D0C9
:10435000330000266361A661E9E7C046012070478B
:10436000F8B502240B7807001C4063425C41144BF3
:1043700064421C40134B08009C4608300D00160098
:10438000644400F0F7F8002807D1002E05D034422D
:1043900003D101242B781C4201D00020F8BD380045
:1043A0006978FFF7A1F90028F7D02B781C42F4D1E7
:1043B0000023002238006978FFF7BEF9EEE7C04617
:1043C00040FEFFFFFF010000F8B50D0008350600B4
:1043D00028000C0000F0CEF8002803D00127237835
:1043E0001F4201D00020F8BD30006178FFF77CF952
:1043F0000028F7D028006288616800F03DF9237832
:10440000051E0BD01F42EDD10300626830006178B9
:10441000FFF792F90028E5D02800E4E71F42E1D138
:1044200030006178FFF774F9DCE7C046F8B5CE4696
:10443000474680B58A8905000C000B78002A07D111
:1044400001261E423FD00020C0BCB946B046F8BD90
:104450009B0734D5FE2380261B029946B600270011
:104460000837380000F0A4F88642ECD801222378FF
:1044700090461A42E7D128006178FFF735F9002805
:10448000E1D0380000F094F8864231D841462378D4
:1044900062881942D7D14B461840061C904200D979
:1044A000161CB6B200226178002E00D0626833007C
:1044B0002800FFF741F90028C5D03000C4E7114BB0
:1044C00040269946CBE74978FFF70EF90028BAD085
:1044D000227863881642B6D100226178002B00D082
:1044E00062682800FFF728F90028ACD06088ABE7A5
:1044F000424623781A42A6D128006178FFF708F9CE
:10450000A1E7C046C0FF0000F0B5C64600B50400F4
:1045100006A805788020884617001E000002824207
:1045200026D8E068002803D00121494200F088FD28
:104530002069002803D00121494200F081FD434653
:10454000236073045B0CED031D430023E06863816B
:10455000A780E5802381002801D000F059FD206963
:10456000002801D000F054FD012080BCB846F0BD09
:104570000020FAE710B5048941898288A3B288B285
:104580008C4207D31B1A9BB2101C9A4200D9181CEC
:1045900080B210BD5100091A5B189BB2F4E7C04607
:1045A00003894089181A43425841C0B27047C04637
:1045B00010B5048941898288A3B288B28C4207D39E
:1045C0001B1A9BB200209A4201D9D21A90B210BD98
:1045D0005100091A5B189BB2F4E7C04670B504009D
:1045E00000690E00002803D00121494200F028FD97
:1045F00025896089A288A9B283B285422CD3CD1ABD
:10460000ADB2002D2ED0AA4208D2914230D3891AE1
:104610008BB263819A4203D89B1A9BB29A42FBD910
:10462000E28821685204520C53433000C918FDF748
:104630005DFB63890125591C89B2A2888B4213D97D
:1046400000215200891A89B220696181002801D0B5
:1046500000F0DEFC280070BD5500ED1A4D19ADB21A
:10466000002DD0D1618989B252009142ECDBE9E79B
:1046700089188BB26381CDE7F0B546464F46D646E2
:10468000C0B50600006989469046002803D0012184
:10469000494200F0D5FC31897289B5888BB294B259
:1046A000914254D31F1BBFB2002F4AD0BD4205D246
:1046B000AB4251D25B199CB22F0074814346B8457E
:1046C0003DD89FB2A54203D8641BA4B2A542FBD932
:1046D000F28831685204520C904662432B1B9BB205
:1046E000891842469F4225D953439BB21A00484637
:1046F0009A46FDF7FBFA434648467D1B64195C4326
:1047000031685044A2B2FDF7F1FA7189B588CB192E
:104710009BB26A00994216D99B1A9BB23069738189
:10472000002801D000F074FC3800E0BCBA46B14665
:10473000A846F0BD48467A43FDF7D8FAE5E73B1CAA
:10474000BFE773899BB26A009342E7DBE4E76F003F
:104750003F1BDF19BFB2A7E75B1B9CB2ACE7C046AB
:10476000F8B50400C0680E00002803D001214942BA
:1047700000F066FC258920896189A288ADB283B2E8
:104780008FB2884229D3DB1B9BB29A4209D8E779C2
:10479000FF0906D1E068002801D000F039FC38009C
:1047A000F8BD95421ED32B009B1A9BB29342FBD2BD
:1047B000E28820685204520C53433100C018FDF7C0
:1047C00095FA6B1C9BB2A2889D4218D90023520017
:1047D0009B1A9BB201272381DCE75100C91B5B18A0
:1047E0009BB2D2E72B00E28820685204520C53435C
:1047F0003100C018FDF77AFA0135A288ABB2520039
:104800009342E7DBE4E7C046F0B557464546DE464F
:104810004E46E0B5140005000F0083B0002A75D0A5
:10482000C068002803D00121494200F009FC2E890C
:10483000E9796A89AB88B6B292B2C90945D1964284
:1048400000D36DE059008A1AB21892B2002189464D
:104850009A4234D29A1A111C92B2A24200D9211C57
:104860008AB29146EA885204520C90464A46B218DF
:1048700092B292464A46D21A92B2934634009E426F
:1048800003D3E41AA4B29C42FBD242466243286896
:104890001B1B9BB2801842464B4554D34B463900F4
:1048A0005A43FDF723FAAB885B00564501D89A4579
:1048B00003DB5246D31A9BB29A4653462B81E868D3
:1048C000002825D000F0A4FB22E0E9884904490C27
:1048D00088469C4227D2964247D3B11A89B28C4669
:1048E0005800E11A89B28B4661460919814208DBFA
:1048F000D11889B20E1BB6B28A46B2423BD9361ADB
:10490000B6B2A21992B29246A146B7E700239946E1
:10491000484603B0F0BCBB46B246A946A046F0BD2F
:10492000B21A92B292E700218946002BC7D04146C5
:10493000E41A4C431600D118002289B28A469946DF
:1049400093463F199AE753439BB21A0039005C44DF
:104950000193FDF7CBF9414622004A43019B2868A9
:1049600092B2F918FDF7C2F99DE75800811A711843
:1049700089B28C46B5E7A146B04200DD7EE7BEE7CE
:1049800010B50400C068002803D00121494200F09E
:1049900057FB2069002803D00121494200F050FB59
:1049A0000023E06863812381002801D000F030FB00
:1049B0002069002801D000F02BFB012010BDC0466B
:1049C00070B50400C0680D00002803D001214942E1
:1049D00000F036FB2069002803D00121494200F095
:1049E0002FFB7F21E379ED011940E0682943E17154
:1049F000002801D000F00CFB2069002801D000F055
:104A000007FB012070BDC04670B50F4C0F4D104A1A
:104A100024184D41A900A00F0843A90F69400D4B70
:104A20006040FDF707F94A01C30E1343CA0E584010
:104A30005140094B094AFDF7FDF84A00C30F1343E3
:104A4000CA0F5840514070BD157C4A7FB979379ED6
:104A5000B9E5E41C6D4758BFBB49D094EB11311345
:104A6000F0B504684568060023002A00C646806841
:104A7000F16803430A4300B5134304D1FCF794FCE7
:104A800003000B43FAD02A06230A6040270613438B
:104A90002A0A3A43070CBC4669404B409846634695
:104AA0000F041F43424003045A4043467B40326098
:104AB0007360C20E4B011343C90E40010843B3603B
:104AC000A10FAB000B43A20012196B41F060D9019A
:104AD000500E0843D201590E11430C0005004B0F34
:104AE000C1001943E0000019694180BCB846F0BD1F
:104AF000F0B5DE4657464E464546E0B5BC4991B056
:104B000008910978002900D1E5E00CAB9846B94B33
:104B1000B94C0293B94BBA4E059310220599404601
:104B2000FDF7E4F8B74B06931B78DBB20793FCF76D
:104B30003BFCFFF769FF0C9B4340089343465B68CF
:104B40004B400993B04B9B69DB0433D5AF4BDA6B19
:104B5000E0231340402B2DD0EFF305839A46AC4B56
:104B60002768994600239B463300564665689A4657
:104B700038002900002E1AD0FCF754FCEFF3108205
:104B800072B64B461B68002BFBD0BFF35F8F2368C8
:104B9000BB4212D0BFF35F8F4B465946196082F378
:104BA00010882768656838002900002EE4D1FCF7DA
:104BB000E5FAE3E7FCF7CEFECEE76368AB42E9D166
:104BC000914B1500DF69FCF7EFFB0A2200238018E8
:104BD00059410B0080215646020009068B4202D340
:104BE00001228C4B524201200CC432687368921827
:104BF0005B413840104300240092019330607360A1
:104C0000BFF35F8F824A146085F310880199FFF724
:104C1000FBFE43469B68424658404346DB68906033
:104C20004B40D3607C4A029B94461B787B4ADB0056
:104C30006344986890424CD00021FFF7E5FE089B42
:104C400043400C93099B4B40190043465960EFF3D6
:104C5000108572B66E4A1368002BFCD0BFF35F8FCD
:104C6000069B079A1B78934214D005980C9A036808
:104C700041685A4043465B680C9242464B40536041
:104C800092688368C1685A404346DB684B4041469E
:104C90008A60CB604046FFF7E3FE102206000C005E
:104CA00005984146FDF722F8069A13780133DBB2E6
:104CB0001370BFF35F8F0022554B1A6085F3108885
:104CC0003000210011B0F0BCBB46B246A946A04658
:104CD000F0BD9C60B0E7524D524CAC462068616814
:104CE000514DA246A84600920193850D8F0286027F
:104CF0002F4334003D0024184D41A30E9946AB01CB
:104D000001934B46019A1A43A30100930192009C20
:104D1000019D241A8D412000644608CC290002938D
:104D20000023A4460393029C039D00196941C445D6
:104D3000DBD1544620606160FFF766FE0CAB9846FD
:104D40000C9B4340029343465B680AA84B40059383
:104D5000FDF744FD0A980B99FFF756FE43469B6802
:104D6000434006934346DB684B400793264B9B69C1
:104D7000DB0400D4F4E0254BDA6BE0231340402B36
:104D800000D1EDE0EFF3058300249A46002340258F
:104D9000009301941E4B2E0099465546C346164C6F
:104DA0000023B04627682E0065689A46380029001F
:104DB000002E1AD0FCF736FBEFF3108272B64B468A
:104DC0001B68002BFBD0BFF35F8F2368BB422DD045
:104DD000BFF35F8F4B465146196082F310882768F6
:104DE000656838002900002EE4D1FCF7C7F9E3E735
:104DF0006B1F0020651F0020E0110020D000002064
:104E0000C0000020661F0020000006400080004017
:104E1000300100D0FFFFFF7F00000340FFFFFF00D5
:104E2000001C0420C8000020002004206368AB425E
:104E3000CED1350046469046009A019B10001900DD
:104E4000801859414B4BDA69012313400343009307
:104E50000191FCF7A9FA0A220023801859410B009E
:104E60008021020009068B4202D30122424B5242AA
:104E700022606360012E5ED10098019935003F4E9B
:104E8000474630607160D846BFF35F8F3C4B994610
:104E900000234A46136087F31088FFF7B5FD029B95
:104EA00043400C93059B4B4019005B465960FCF74F
:104EB0007BFAFFF7A9FD069B434018005B4698600C
:104EC000079B4B4019005B46D960EFF3108772B621
:104ED0004B461B68002BFBD0BFF35F8F089B1B78F2
:104EE000002B31D1274BDA681F2A3CD05A691F2A80
:104EF0003AD0DA691F2A39D05B6A03251F2B33D0D9
:104F0000FCF728FDFF25FF231F4AED0013701F4B00
:104F100002929C46052365446B604046FFF7A0FD66
:104F20001B4B1022180041460593FCF7DFFE0123BE
:104F3000089A13700CE0BFF35F8F00234A4613609A
:104F400088F31088013E2BE70F4B0293104B05931B
:104F5000BFF35F8F00220A4B1A6087F31088DCE5ED
:104F6000FCF7F8FC0EE70025EBB2CDE70225EBB22B
:104F7000CAE7C04600000640FFFFFF7FC0000020D8
:104F8000300100D000000340651F002008000340EE
:104F9000D000002010B5FFF7ABFD10BD10B58307A2
:104FA0000AD00300032102E001330B4205D01A7836
:104FB000002AF9D1181A10BD030019680C4A0D4CCB
:104FC0008A188A4322420FD15968094A04338A1841
:104FD0008A43224208D15968054A04338A188A4311
:104FE0002242F1D000E001331A78002AFBD1E1E738
:104FF000FFFEFEFE80808080F8B5C0460000000005
:1050000001B40248844601BC604700BFE9020020A9
:1050100001B40248844601BC604700BF4D02002035
:1050200001B40248844601BC604700BFED0E002079
:1050300001B40248844601BC604700BFE100002083
:1050400001B40248844601BC604700BFBD01002096
:1050500001B40248844601BC604700BFCD0B00206C
:1050600001B40248844601BC604700BF2101002012
:1050700001B40248844601BC604700BF5D0C0020BB
:1050800001B40248844601BC604700BF0D0C0020FB
:1050900001B40248844601BC604700BFA50B002054
:1050A00001B40248844601BC604700BFA903002048
:1050B00089190010B5190010011B0010D11C001037
:1050C000691B0010751C0010291A0010D11900105E
:1050D000F1190010051A0010D50A00100D1A001061
:1050E0009D0E00105119001035050010B10200107E
:0450F000CD270010B8
:1050F4000F0000000E0000000D0000000C00000076
:105104000B0000000A000000090000000800000075
:1051140007000000060000000A2A2A2A2050414EF7
:105124004943202A2A2A0A000A0000004E6F2073ED
:1051340070696E6C6F636B73206172652061766158
:10514400696C61626C6500004E6F20757365722036
:10515400495251732061726520617661696C6162A4
:105164006C650000486172647761726520616C61EE
:10517400726D20256420616C726561647920636CB2
:1051840061696D6564000000486172642061737335
:10519400657274006D697373696E6720646F7562FC
:1051A4006C652066756E6374696F6E0052656C651C
:1051B40061736500626F6F74325F773235713038B6
:1051C40030000000322E312E310000007069636F10
:1051D4005F7700006368616F73626C696E6B0000D7
:1051E4004170722020332032303235005541525400
:1051F40020737464696E00005541525420737464C2
:105204006F7574005541525420737464696E202F75
:10521400207374646F757400555342207374646909
:105224006E202F207374646F757400005261737064
:105234006265727279205069000000005069636FE2
:1052440000000000426F6172642043444300000088
:105254005265736574000000556E68616E646C6518
:10526400642049525120307825780A006570202541
:105274003032582077617320616C726561647920E3
:10528400617661696C61626C6500000043616E2740
:105294007420636F6E74696E75652078666572201C
:1052A4006F6E20696E616374697665206570202570
:1052B4003032580006005250D3F07542B0510010FD
:1052C40006005250E182887FB85100100600525007
:1052D400ABB36053C851001006005250BBFF3CB63C
:1052E400D051001006005250861C0302D851001001
:1052F400060052505422A29DE45100100500525061
:10530400DE65F468306500100D0A00000600525096
:1053140053B4F4A1085200100800525012000000C7
:1053240008005250921000000000000015220010E6
:105334000000000019220010252200105122001044
:105344004D220010000000000A00000000000306C7
:10535400A6000800020002009C0014000300574944
:105364004E55534200000000000000000000800081
:105374000400010028004400650076006900630011
:10538400650049006E0074006500720066006100EB
:1053940063006500470055004900440000004E00CA
:1053A4007B0062006300370033003900380063007B
:1053B40031002D0037003300630064002D003400F9
:1053C4006300620037002D003900380062003800A5
:1053D4002D0039003100330061003800660063009D
:1053E400610037006200660036007D0000000000A6
:1053F400050F2100011C100500DF60DDD88945C7B9
:105404004C9CD2659D9E648A9F00000306A6000101
:10541400000000000600525053B4F4A11C520010C6
:10542400000000003052001040520010501F0020B5
:105434004852001054520010090254000301008025
:105444007D080B00020202000009040000010202B0
:10545400000405240020010524010001042402069F
:105464000524060001070581030800100904010052
:10547400020A00000007050202400000070582023C
:105484004000000904020000FF000105120110029F
:10549400EF0201408A2E0A0000010102030100000C
:1054A400442E0010AC2F0010FC2F0010842F00108D
:1054B400962F0010742F0010E42E0010902E001070
:1054C400842E0010663300104C3300101C31001081
:1054D400863300101C3100103433001020330010C8
:1054E4001C3100100C330010123200101C3100105B
:1054F400F2350010E4350010D83500101C310010CE
:105504001C310010C2350010E43500101C310010AD
:105514001C3100101C3100101C3100101C31001013
:105524001C3100101C310010783500102E0D0020A5
:105534002E0D0020780D0020980D0020DC0D002099
:10554400EE0D0020240D0020000000008D3B001013
:10555400FD3B0010313C00107D3C0010253D001047
:105564000D3E001000000000000000000D3F001080
:10557400693F0010853F0010AD3F0010B5220010B8
:08558400D540001000000000FA
:10558C00B8520010C4520010D0520010DC5200105F
:10559C00E8520010F4520010005300102453001075
:0C55AC001C530010105300101854001085
:1055B80003000068EFF3108C72B60268002AFCD072
:1055C800BFF35F8F04229A56002A04DB002900D01B
:1055D8000A60002004E0D0220120120612681A7125
:1055E8001B68BFF35F8F00221A608CF31088704726
:1055F800F0B5C646150000B504001E000268EFF3BA
:10560800108172B61368002BFCD0BFF35F8F0423A0
:10561800E356002B2DDB2268BFF35F8F002010605C
:1056280081F31088D0221206127852B290469A421C
:1056380003D1002080BCB846F0BD00270BE02368EA
:10564800BFF35F8F1F6081F310882800310000F0DE
:10565800CFFE0028EDD12268EFF3108172B61368EF
:10566800002BFCD0BFF35F8F23797F2BE7D943460C
:1056780002E0D0231B061B6823712368BFF35F8FEA
:1056880000221A6081F310880120D3E7F0B5C646DE
:1056980000B50D00040000F0BBFEFA2206000F0062
:1056A800002328000021920000F092FE8023361883
:1056B8004F411B069F4202D30126174F7642D02343
:1056C8001B061B68002598460BE02368BFF35F8F15
:1056D8001D6081F310883000390000F089FE002831
:1056E80018D12268EFF3108172B61368002BFCD032
:1056F800BFF35F8F23797F2BE7D943462371236854
:10570800BFF35F8F00221A6081F31088012080BCEC
:10571800B846F0BD0020FAE7FFFFFF7F0268EFF30D
:10572800108172B61368002BFCD0BFF35F8FFF2384
:1057380003710368BFF35F8F00221A6081F310883A
:1057480040BF704710B5084C2378002B0AD180233E
:10575800064807495B051A68C25004338B42FAD1E0
:105768000123237010BDC046641F0020801800105C
:105778000001001010B5014B984710BD811800209A
:10578800034B1A68C0239B009343024A1360704777
:105798000C8001400C900140054B1A6880239B0047
:1057A8005340C02292001340024A13607047C0461B
:1057B8000C8001400C9001401423F0B5D6464F46AA
:1057C80046469A46814618880433C0B598460E0066
:1057D8001B882649140098475346070018884346F3
:1057E80023491B8898475346050018884346214992
:1057F8001B8898478046FFF7A5FFB847A847FFF7DB
:10580800CBFF221E20D0C02108270220490511E025
:10581800002C14D0131B0D2B20D9002D0AD02300E7
:10582800002A05D00B6E013A33701300013623436A
:10583800002B09D03D008B6A1D401842E8D1002D8D
:10584800EDD123001343F5D1FFF79AFFC047FFF7C7
:1058580091FFE0BCBA46B146A846F0BD4B461B785E
:10586800013C0B6601239C46E144E8E749460000F9
:1058780045580000464300000022154B10B59A60B9
:10588800DA601A615A619A61DA611A625A629A6236
:10589800DA621A635A639A63DA631A645A649A6416
:1058A800DA641A655A659A65DA651A665A669A66F6
:1058B800DA661A675A679A67DA67F0329200002147
:1058C800044800F07DFD044B044A1A6010BDC04630
:1058D80000001050341A0020FC1D002080011050D8
:1058E800F0B54E464546DE465746E0B5214B002406
:1058F8009E6D012585B0002E22D01F4B9A460123AC
:1059080099461E4B984601E0202C19D02A00230006
:1059180001342F003240E4B26D00002AF4D0524620
:1059280097654A465B085B0022409B185B0143442D
:1059380018009B4600F030FC002808D1BE43E3D194
:1059480005B0F0BCBB46B246A946A046F0BD5B46D2
:10595800E0219A78DB8A01A883600023C9000180CE
:1059680001210271437100F037FC584600F0B0FB8A
:10597800E4E7C0460000115000301150F41900202F
:105988009823F0B5C646C64A00B5D55880232E00E0
:105998009B02102484B01E401D4273D0C14BC24CE0
:1059A8009A6AC24B00261A603B23E35C022B00D1A3
:1059B800F4E07B23E35C022B00D10CE1BB23E35C26
:1059C800022B00D1FBE0FB23E35C022B00D135E185
:1059D8003C23FF33E35C022B00D122E17C23FF331D
:1059E800E35C022B00D10FE1BC23FF33E35C022B05
:1059F80000D1FCE0FC23FF33E35C022B00D1A6E1DD
:105A0800AB4BE35C022B00D196E1AA4BE35C022B83
:105A180000D185E1A84BE35C022B00D174E1A74BD0
:105A2800E35C022B00D163E1A54BE35C022B00D1C0
:105A38002AE1A44BE35C022B00D10BE1A24BE35C0F
:105A4800022B00D18FE1A14BE35C022B00D1A6E130
:105A5800002E08D19E4B1B78002B04D180219D4A33
:105A680090338902D150C0228D4B01A89B6C9200C3
:105A78005B055B0D012180260280436000F0ACFBD2
:105A8800954CB602EB0600D57CE080235B021D42F4
:105A980032D01E43012302249846834FBB7E002B3D
:105AA80014D000F09DFC012800D96FE0C02200212D
:105AB8003800920100F012FB380000F009FB00F0FA
:105AC8008FFC012802D9834B5C661C664346FB7039
