:020000041000EA
:1000000000B5324B212058609868022188439860DF
:10001000D860186158612E4B002199600221596106
:100020000121F02299502B49196001219960352056
:1000300000F044F80222904214D00621196600F024
:1000400034F8196E01211966002018661A6600F04E
:100050002CF8196E196E196E052000F02FF8012189
:100060000842F9D1002199601B49196000215960AB
:100070001A491B48016001219960EB211966A021F2
:10008000196600F012F800219960164914480160C1
:100090000121996001BC002800D000471248134993
:1000A000086003C880F30888084703B5996A0420EC
:1000B0000142FBD001200142F8D103BD02B5186610
:1000C0001866FFF7F2FF186E186E02BD00000240BE
:1000D000000000180000070000035F00212200005C
:1000E000F4000018222000A00001001008ED00E03C
:1000F00000000000000000000000000074B24E7A12
:1001000000200420F7010010C3010010C5010010F9
:10011000C1010010C1010010C1010010C101001097
:10012000C1010010C1010010C1010010C701001081
:10013000C1010010C1010010C9010010CB01001065
:10014000CD010010CD010010CD010010CD01001037
:10015000CD010010CD010010CD010010CD01001027
:10016000CD010010CD010010CD010010CD01001017
:10017000CD010010CD010010CD010010CD01001007
:10018000CD010010CD010010CD010010CD010010F7
:10019000CD010010CD010010CD010010CD010010E7
:1001A000CD010010CD010010CD010010CD010010D7
:1001B000CD010010CD010010CD010010CD010010C7
:1001C00000BE00BE00BE00BE00BE00BEEFF3058054
:1001D000103800BEF2EB887144190010601900104D
:1001E0003802001090A31AE71E481F49086006C88D
:1001F00081F3088810471D480068002801D019487D
:10020000F3E70DA40ECC002902D000F012F8F9E7B4
:100210001749184A002000E001C19142FCD116495B
:100220008847164988471649884700BEFDE701C937
:1002300001C29A42FBD3704760190010C000002031
:1002400018030020B81B0010000004200000042048
:10025000B81B001000100420001004200000000053
:10026000704700000000000008ED00E0000000D032
:10027000180300201008002049140010210300106A
:1002800041140010F8B5C0460448054B10B5834230
:1002900003D0044B002B00D0984710BD180300205A
:1002A000180300200000000006480749091A8B10B7
:1002B000C90FC91810B5491003D0044B002B00D04A
:1002C000984710BD1803002018030020000000000C
:1002D00010B5074C2378002B09D1FFF7D5FF054B4C
:1002E000002B02D0044800E000BF0123237010BDA2
:1002F00098050020000000004C180010054B10B5B8
:10030000002B03D00449054800E000BFFFF7CCFFF5
:1003100010BDC046000000009C0500204C180010D5
:10032000F8B5102000F044F8112000F041F8D02476
:1003300080238026012724065B02B6026362002226
:1003400001211120A66200F01FF80E4D63683342B0
:100350000BD02B78002B0ED180235B02A36164208D
:1003600000F020FC63683342F3D12B787B40DBB292
:100370002B70002BF0D080235B026420636100F0BF
:1003800011FCE3E70C080020074B8000C3181B6832
:10039000C90092000A435A400C231340034A944672
:1003A000604403607047C04604C0014004D001406F
:1003B0000123D0228340120693629361094A83008D
:1003C0009A1811684022514080320A400649C00004
:1003D0008C4663441A60054B9C4605236044436089
:1003E0007047C04604C0014004D0014000400140B5
:1003F0000FB400B5084883B001F06EF9049B002BE0
:1004000007D005A91800019101F000F8034801F098
:1004100063F9012001F012F84C1800105C1800106C
:1004200070B5EFF3108C72B60D4D2B68002BFCD01D
:10043000BFF35F8F0724CB08C618C05C01230C40B4
:10044000A3401C000440034207D118433070BFF39F
:100450005F8F2C608CF3108870BD1000FFF7C8FF11
:100460002C0100D0044A1078431CDBB2172B00D9B2
:10047000102313707047C046D00200200021044BA7
:10048000044ABFF35F8F02C39342FAD17047C0465C
:10049000000100D0800100D0054B064A1360064AD7
:1004A000136053609360D36013615361936170472D
:1004B0008080808000E400E004E400E01F23184016
:1004C0001E3B8340002905D0C021044A49005350F7
:1004D00013607047802201498B50FAE700E100E089
:1004E00070B50D00EFF3108672B60F4A1368002B3B
:1004F000FCD0BFF35F8F0D4B10309B6884001B59FD
:100500000B4A934203D09D4201D000F0A5FD074B5A
:100510009B681D51BFF35F8FBFF35F8F0022024BBB
:100520001A6086F3108870BD240100D000ED00E051
:10053000CD010010024B9C46614489000160704768
:1005400040000034F8B5134D134E2C00FF27B54280
:100550001ED22368002B0FD0FFF784FF0100280074
:10056000FFF7E8FFA780BFF35F8F0834B4420FD2D4
:1005700023682500002BEFD1FFF774FF010028004E
:10058000FFF7D8FF2771BFF35F8F0834B442EFD372
:10059000F8BDC04610030020180300200A4B19685C
:1005A000EFF3108072B60A68002AFCD0BFF35F8FA9
:1005B0001B68BFF35F8F00221A6080F3108840BF72
:1005C000002000217047C04608080020F0B5DE4634
:1005D00057464E464546E0B585B0EFF30582032306
:1005E0001340B64A9900575801229A4088469346CC
:1005F000B34B1A60B34B02935B46B3484363082383
:10060000FE5E002E35DABB881BB2002B00DBA8E0B3
:10061000BB79002B00D0E9E00823F85E00281EDB40
:1006200043007A691B18DB00D3189D68DC686B1CDB
:1006300000D108E1A44801004144826A0B69AE1A66
:100640009B1A9E4213D35A46036A1A420FD09E4801
:1006500000F04CFB8C4202DCCED18542CCD940BFAD
:1006600005B0F0BCBB46B246A946A046F0BD0D6140
:10067000EDE77A69730091469B19DB0099444B467C
:100680009C68DD6800F032FB8D42BCDC00D1FEE0EE
:10069000002D00DAE3E04B46029A1B69934200D139
:1006A000D5E04A465288494694460822B85E6246DA
:1006B0000004496910439847009001910099019AFC
:1006C0000B001000134300D1C9E013000A000028FA
:1006D00000DBE0E020002900801A99414B46986039
:1006E000D96000229A5E002A00DA8CE753009C1839
:1006F0007D69E4002C190093A368E4689A468C4253
:1007000000DD80E702D1834200D97CE708239C46C4
:10071000BC443A8103976746009BB4463E000EE016
:100720008C4200D1C5E01E000023F25E002A0BDBE4
:1007300053009C18E4002C19A768E468BA469B187B
:10074000DB00EB188C42EBDD330066469C464B46E3
:100750001A806346039F1E80BB881BB2002B00DA01
:1007600056E73A69EFF3108172B61368002BFCD09C
:10077000BFF35F8F0123BE885B42BB8036B23B690B
:10078000BFF35F8F00221A6081F31088002E00DA19
:100790003EE73B0008333A0099467D6973009B1998
:1007A000DB00EB189968DC688C460820115E48462F
:1007B000002910DB009306E0A34240D00023F95E3D
:1007C0003800002906DB4F007F18FF00EF19FB6897
:1007D000A342F1DD009B068000201E5E1980002EE2
:1007E000DCDA1700BB79002B00D115E70023BB71C1
:1007F0003D000823F95E08354B1C00D12FE77C69CA
:100800000800A44603E035004B1C00D106E74B006E
:100810005B180A006146DB00CE18C95E73881BB204
:10082000002BF0DA01235B42DC17B360F4608242F4
:10083000EAD029803B89100033803A81E4E7BB6825
:100840006345BBD9C6E7631C00D0F3E6FFE64B4621
:100850005B699A461B6950469847002823D14B464E
:100860001B883A693B81EFF3108372B61168002947
:10087000FCD0BFF35F8F49467A880A803A697E8050
:10088000BFF35F8F0021116083F31088BBE68442C1
:1008900000D8FDE6B7E60C4800F028FA009B019C62
:1008A000C01861411AE753461A685B6800920193C9
:1008B00004E7824500D836E746E7C046EC0600204C
:1008C0003C700540CD0500100040054070B52E4C31
:1008D0002569002D04D00A212C48FFF72BFE70BD9E
:1008E0002B4E0321300000F0F7F9E660FFF7BAFD68
:1008F000284B03229C46D02322701B061B68012133
:100900006370254B6044A3600F23800020610220A8
:10091000638063694942A180198002311986473199
:100920001D83585218315A5275325C399952183217
:1009300001319952183201319952183201319952CC
:10094000083518329D52023118329952183201314D
:100950009952183201319952183201319952183294
:10096000013199521832013199520C4B0C49DC601B
:1009700001303562FFF7B4FD01210320FFF79EFD32
:10098000084B1D60A7E7C046D402002008080020DD
:100990000040054040000034FFFF1000EC0600203E
:1009A000CD0500103860054070B501000469EFF313
:1009B000108C72B620680028FCD0BFF35F8F022035
:1009C0000D5E4C6968004019C0002418002D37DB0B
:1009D000208848800869BFF35F8F002606608CF38B
:1009E0001088E36063880498013320615B040598F4
:1009F0005B0CA26060611A1C002B1FD093B228040C
:100A0000628018430A69EFF3108C72B61368002BEA
:100A1000FCD0BFF35F8F8B8823808D800B69BFF381
:100A20005F8F00221A608CF310880B7801329A4095
:100A3000CB6808498C4663441A6070BD0122DDE72B
:100A40000B69BFF35F8F00221A608CF310880120BE
:100A50004042F2E73C20000010B543890A1493425B
:100A60001ADD53009B184269DB00D3180469EFF3C9
:100A7000108C72B62268002AFCD0BFF35F8F5A88B0
:100A8000090494B2090C8A4208D00369BFF35F8F4E
:100A900000221A608CF31088002010BD8022120200
:100AA00014435C80012302698371BFF35F8F0021CF
:100AB00011608CF31088044902788C469340C26818
:100AC000012062441360E8E73C200000F0B5040018
:100AD0000D0006267642F717C64636196F4100B557
:100AE00082B08F4214D811D000F008F932003B00D8
:100AF000121A8B41002B17DC002B47D02000290055
:100B000000F006F902B080BCB846F0BD8642EBD9D1
:100B10000022002316001F0000F0F0F832003B0016
:100B2000121A8B41002BE7DD00F0E8F832003B00A1
:100B3000121A8B41002B0ADB00230193154B320064
:100B4000009315483B00FFF72FFF0028D6DB00235A
:100B50009C46B046114A124E736A9F4204D8B16A4D
:100B60004145CBD29F42C9D11168EFF3108072B6D4
:100B70000B68002BFCD0BFF35F8F1368BFF35F8F50
:100B80006146196080F3108820BFE5E7002AB5D0E0
:100B9000CAE7C0469D050010D402002008080020C6
:100BA0000040054070B5060000F0A8F8FA220400E5
:100BB0000D00002330000021920000F0BDFB8023D7
:100BC000001969411B06994202D3012002494042A3
:100BD000FFF77CFF70BDC046FFFFFF7FF0B5CE463C
:100BE000474680B504000D0083B0EFF30587002F62
:100BF0000DD0364A0020536A8B4203D3926A0130EB
:100C0000A24250D303B0C0BCB946B046F0BD304B91
:100C10009846DB689946434648461E7800F066F8D9
:100C20000B00494602000436B600715820008E1AA7
:100C30002900801A99418F4211DC0ED020BF234A2F
:100C40000020536AAB42DDD3926A0130A242D9D26E
:100C5000EB1A5A1E9341D8B2D4E78642EED900F07F
:100C60004DF822002B00121A8B41002B20DB0023B1
:100C70000193184B2200009340462B00FFF794FE8F
:100C8000011E15DD114B2E005A6A95421CD89B6A35
:100C9000A34217D34046FFF7DFFE0C4A0020536AF9
:100CA0009E42AFD8D0E75B1A5A1E9341D8B2A9E74B
:100CB000064A0020536AAB42A4D3926A0120A242A2
:100CC000A0D2C5E79542E5D120BFE3E7004005404B
:100CD000D40200209D05001010B5024A0248FFF71B
:100CE0009FFB10BD60180010B40600200300416A8D
:100CF0000A00986A596A8A42FAD17047034B596AC6
:100D00000A00986A596A9142FAD17047004005403A
:100D1000064A536A9942FCD807D1044B02E05A6A4A
:100D2000914202D19A6A8242F9D37047004005404D
:100D3000F8B5DE464E4657464546E0B58B460500BB
:100D40000A991800160000F065FA0A9B6C001F0251
:100D5000324B64199C46A4006444636881469F42F8
:100D600000D967602B1FDBB29846012B30D9C02316
:100D700080229B01E31812011A60294BAD005959DA
:100D80009A4600291BD17301E026226853401E4079
:100D9000802342465B01E3181E60012A30D980237C
:100DA00080229B01E31812011A6053464A4667608D
:100DB0005A51F0BCBB46B246A946A046F8BD586998
:100DC00000F028FA013043001B18033BFDD2DAE79C
:100DD0005B46012BCBD1C02303229B01E3181A6091
:100DE000023AA3681A42FCD07301E0262268AD00E3
:100DF00053401E4080230A4A5B019246E3181E605E
:100E00005A462168514003220A401A6001225B467B
:100E10009A40A3681A42FCD0C1E7C0460080004057
:100E2000B8060020F0B546464F46D646C0B51F006E
:100E3000344B44009C462418A400644463688846EC
:100E40001600FF2B02D880235B006360031FDBB218
:100E50009A46012B30D9C02380229B01E31812014E
:100E60001A60294B85005959994600291BD17301F5
:100E7000E026226853401E40802352465B01E3185F
:100E80001E60012A30D9802380229B01E3181201C1
:100E90001A6080235B0063604B465F51E0BCBA463A
:100EA000B146A846F0BD586900F0B4F901304300DE
:100EB0001B18033BFDD2DAE74346012BCBD1C023FD
:100EC00003229B01E3181A60023AA3681A42FCD07D
:100ED0007301E0262268850053401E4080230A4AA1
:100EE0005B019146E3181E6042462168514003228F
:100EF0000A401A60012342469340A2681342FCD084
:100F0000C1E7C04600800040B8060020014B8000C9
:100F1000C0587047B8060020F8B5040020481D00EE
:100F200017000E0000F076F90100380000F072F9A9
:100F3000069B29041B0319432368002B1EDB194B56
:100F4000194DE21853425A4180235B019C4612031B
:100F5000164B62441A60164B1A6017002B689F43A9
:100F6000FBD1144B2660E2182123A0601360236894
:100F7000002BFCDA0823E1601360F8BD3F232268F0
:100F80001340B342DBD1A3681B051B0D8342D6D1AE
:100F9000EE22E368D20213408B42D0D1EDE7C04687
:100FA000001BB7000040FDBF08C0004000E000404B
:100FB00000F00040043000008023024A9B000B43F5
:100FC000D362704700800540142310B501001888D3
:100FD00004331B88984710BD162310B501001888EC
:100FE00002331B88984710BDF8B54746CE4680B5FA
:100FF0000F1E19D01423994604330400002501263E
:1010000098464B461888434621681B88984701C478
:10101000431E9841013540420640AF42F1D13000B5
:10102000C0BCB946B046F8BD0126F8E7AA23064A77
:101030001B0113608D235B00D3600449044B1960CE
:101040005368002BFCDA70470040024000B0FA0001
:10105000006002407047C04610B50148FFF7C8F96C
:101060008418001070B5074D074EB54209D2002410
:10107000013E761BB60808CD984723000134B342E1
:10108000F9D170BD0818001044180010054B064A2D
:1010900006491A60064A074B1A6010000B6898430D
:1010A000FBD1704700E00040BFCDFBFE08C0004010
:1010B000FE7F3C0000F00040044BDB6C002B03D1B2
:1010C0008022034BD2021A607047C04600001150C4
:1010D0004C201150044A054B1A60054A1368DB0185
:1010E0008033FBD17047C046FFFFFF0100F0004096
:1010F00008C000404022034B9A675A671A67DA66B5
:101100007047C04600F0014010B5FFF7B7F910BDB9
:1011100070B5044D044CA968C022200000F068F9A5
:10112000AC6070BD00ED00E000000020002310B5B1
:10113000294C82B0A367FFF779FF0122274B1A6081
:10114000636C012BFCD10322254B1A60224A936B5E
:10115000012BFCD1013300930121224A22480433A0
:10116000FFF7DAFE052301210093204A2048FFF70C
:10117000D3FE0022022104201E4BFFF753FE002263
:10118000012105201C4BFFF74DFE00220021072006
:101190001A4BFFF747FE002200210820174BFFF7EC
:1011A00041FE8023DB000093002200210920134B25
:1011B000FFF7BEFD0022104B00210620FFF732FE94
:1011C0000420FFF7A3FE0E4900F024F801000020E0
:1011D000FFF7F2FE02B010BD008000403CB00040BE
:1011E00030B00040002F685900800240008C8647D4
:1011F00000C00240001BB70040597307006CDC02BE
:1012000040420F0001480421014B1847F002002022
:10121000E90F0010114A936F9B0813D210665166B4
:10122000002905D0FFE7FFE7FFE7516F106F704718
:1012300004B5002801D00020C04300F0D5FA0021F9
:1012400004BDC046F0B5146E556E576F166FFFF7AC
:10125000E5FF1466556657671667F0BD000000D0BD
:1012600010B50148FFF7C4F890180010132370B5AB
:101270001D78012D19D014DD1D48FFF7ADFE0600C5
:101280001C48FFF7A9FE1C4C80223100200000F012
:10129000AFF8022D06D01948FFF796FE184B1860DC
:1012A00070BD154C174BA364F5E7174B124C236028
:1012B0006360A360E36023616361A361E361236210
:1012C0006362A362E36223636363A363E3632364F0
:1012D0006364A364E36423656365A365E3652366D0
:1012E0006366A366E36623676367A367E367D9E77B
:1012F0005344000053460000980400204C33000083
:10130000040700200D1300106112001007B560469D
:1013100001880A0A0230DF2AFAD1C9B2820804D34E
:10132000028840880004104300E00068014A5050E1
:10133000039007BD9804002051434343C9188C46CD
:10134000110C83B24B4310B4040C614392B280B2CF
:10135000504362431C041B0C001910BC5941130478
:10136000120CC018514161447047000010B501488B
:10137000FFF73EF8A8180010132310B510481C788A
:10138000FFF72AFE0100012C0AD003DD80220D4860
:1013900000F02EF80C48FFF717FE0C4B186010BD3C
:1013A000084C5422200000F023F822000849803223
:1013B0002368002B00D1216004349442F8D1E9E77E
:1013C00053460000080700204C33000004070020AB
:1013D0006D13001001480421014B18470003002041
:1013E000E90F0010014B1B681847000000030020A4
:1013F000014B5B68184700000003002010B500286F
:1014000000D110BD00F01CF9FBE7C04610B5094A39
:101410000300146884B0002C08D001220091064813
:10142000524203A9A047012004B010BD00F054F9B6
:101430000020F9E7E8060020FD13001000BEFDE7DC
:1014400010B5FFF7FBFFC04670B5FFF70BFE074D69
:10145000074EB54209D20024013E761BB60808CDDE
:10146000984723000134B342F9D170BD44180010ED
:101470004C180010030010B5080011001B689847B5
:1014800010BDC046F0B546464F46D646C0B5437D72
:1014900080460E001700002B4BD0002A32DD274B70
:1014A00001259A464B1E00240020994607E0335D33
:1014B0000A2B2CD02B0001340135BB4213DA002C4F
:1014C000F5D133780A2BF5D143461B7D002BF1D1A2
:1014D0004346504602211B68984728002B000134E0
:1014E0000135BB42EBDB874204DD4346391A1B68FA
:1014F00030189847F619013E33780D3B5A42534154
:1015000042461375E0BCBA46B146A846F0BD4B460C
:101510001B5D0D2BCED0A042DADA4346211A1B68A0
:10152000301898474346504602211B6898472800C8
:10153000D4E70368110030009847E3E74019001032
:10154000F0B5DE4657464E464546E0B585B0170035
:101550001C0006000D00FFF7D1FB0023314A1218D2
:101560004B41802109068B4202D301222E4B52426D
:101570002E4908008A4600F03FF901906B1C03D108
:10158000300000F0EFF80500002C26D0284B9846DC
:10159000284B1C68002C15D0002F21D1264F02E0CB
:1015A0002469002C0ED02368002BF9D03B68002B57
:1015B00001D0A342F4D120002A003100C0472469A1
:1015C000002CF0D1019B002B28D1280005B0F0BCE5
:1015D000BB46B246A946A046F0BD184B9846D7E791
:1015E000154B994602ABDF1D0A239B4602E0246996
:1015F000002CE7D02368002BF9D04B461B68002B4A
:1016000001D0A342F3D12A0031002000C0475B463D
:101610000122390020003B70C047E8E7504600F047
:10162000DBF8D2E740420F00FFFFFF7F10030020EE
:1016300085140010E0060020E40600207514001058
:10164000F0B5CE46474680B583B06B460600DD1D3B
:101650002870FFF753FB00231A4A12184B418021D0
:1016600009068B4202D30122174B52421749080048
:10167000884600F0C1F8164B81461C68002C14D037
:10168000144F02E02469002C0FD02368002BF9D0FE
:101690003B68002B01D0A342F4D120000122290095
:1016A000FFF7F0FE2469002CEFD14B46002B05D14B
:1016B000300003B0C0BCB946B046F0BD404600F0B3
:1016C0008BF8F5E740420F00FFFFFF7F100300207B
:1016D000E0060020E406002070B5040000F042F8A7
:1016E00001230100050001222000FFF729FF084B1C
:1016F0001C68002C06D06368002B05D0984724692D
:10170000002CF8D1280070BD2469002CF3D1F9E732
:10171000E006002010B5024800F004F810BDC046F5
:10172000FC06002030B5002589B004000922002104
:1017300001A80095FFF756FE0922002105A804958F
:10174000FFF750FE4B236A466846137004A90D222A
:1017500000F03AF81521082220006944FFF748FEFE
:1017600009B030BD10B583070AD00300032102E0A1
:1017700001330B4205D01A78002AF9D1181A10BD8E
:10178000030019680C4A0D4C8A188A4322420FD173
:101790005968094A04338A188A43224208D1596891
:1017A000054A04338A188A432242F1D000E001330B
:1017B0001A78002AFBD1E1E7FFFEFEFE80808080E0
:1017C000F8B5C0460000000001B40248844601BCE0
:1017D000604700BFF901002001B40248844601BC03
:1017E000604700BF5D01002001B40248844601BC8F
:1017F000604700BFB902002001B40248844601BC22
:10180000604700BFC10000208D100010B91000100B
:1018100005120010D51300106D120010791300107E
:101820002D110010D5100010F51000100911001036
:101830004505001011110010CD08001055100010C2
:0C18400099040010FD02001015170010A4
:10184C000A2A2A2A2050414E4943202A2A2A0A00D1
:10185C000A000000486172647761726520616C61F6
:10186C00726D20256420616C726561647920636CF3
:10187C0061696D6564000000486172642061737376
:10188C00657274006D697373696E6720646F75623D
:10189C006C652066756E6374696F6E0000000000E5
:1018AC0052656C6561736500626F6F74325F77327D
:1018BC003571303830000000322E312E31000000EE
:1018CC007069636F5F770000746F67676C656C6538
:1018DC00640000004D617220313920323032350005
:1018EC0006005250D3F07542AC180010060052504E
:1018FC00E182887FB418001006005250ABB36053DD
:10190C00C418001006005250BBFF3CB6CC18001097
:10191C0006005250861C0302D418001006005250C8
:10192C005422A29DE018001005005250DE65F468A8
:08193C00B81B00100D0A0000A9
:10194400EC180010F81800100419001010190010F9
:0C1954001C190010281900103419001094
:10196000F0B5C646150000B504001E000268EFF38E
:10197000108172B61368002BFCD0BFF35F8F042375
:10198000E356002B2DDB2268BFF35F8F0020106031
:1019900081F31088D0221206127852B290469A42F1
:1019A00003D1002080BCB846F0BD00270BE02368BF
:1019B000BFF35F8F1F6081F310882800310000F0B3
:1019C000CFF80028EDD12268EFF3108172B61368CA
:1019D000002BFCD0BFF35F8F23797F2BE7D94346E1
:1019E00002E0D0231B061B6823712368BFF35F8FBF
:1019F00000221A6081F310880120D3E70268EFF318
:101A0000108172B61368002BFCD0BFF35F8FFF23E9
:101A100003710368BFF35F8F00221A6081F310889F
:101A200040BF704710B5084C2378002B0AD18023A3
:101A3000064807495B051A68C25004338B42FAD145
:101A40000123237010BDC0460D080020B40500100E
:101A50000001001010B5014B984710BDB5050020DE
:101A6000034B1A68C0239B009343024A13607047DC
:101A70000C8001400C900140054B1A6880239B00AC
:101A80005340C02292001340024A13607047C04680
:101A90000C8001400C9001401423F0B5D6464F460F
:101AA00046469A46814618880433C0B598460E00CB
:101AB0001B88264914009847534607001888434658
:101AC00023491B88984753460500188843462149F7
:101AD0001B8898478046FFF7A5FFB847A847FFF740
:101AE000CBFF221E20D0C02108270220490511E08B
:101AF000002C14D0131B0D2B20D9002D0AD023004D
:101B0000002A05D00B6E013A3370130001362343CF
:101B1000002B09D03D008B6A1D401842E8D1002DF2
:101B2000EDD123001343F5D1FFF79AFFC047FFF72C
:101B300091FFE0BCBA46B146A846F0BD4B461B78C3
:101B4000013C0B6601239C46E144E8E7494600005E
:101B500045580000464300007047C04600000000A2
:101B600001B40248844601BC604700BFDD0B001091
:101B70001000000000000000000000000000000055
:101B8000000000000000000018030020000000001A
:101B9000503300004C330000543300005233000037
:101BA0004D5300004D430000533400004334000007
:081BB00000000000000000002D
:04000005100001E9FD
:00000001FF
